{
  "_format": "hh-sol-artifact-1",
  "contractName": "Escrow",
  "sourceName": "contracts/Escrow.sol",
  "abi": [
    {
      "inputs": [],
      "stateMutability": "nonpayable",
      "type": "constructor"
    },
    {
      "anonymous": false,
      "inputs": [
        {
          "indexed": true,
          "internalType": "address",
          "name": "previousOwner",
          "type": "address"
        },
        {
          "indexed": true,
          "internalType": "address",
          "name": "newOwner",
          "type": "address"
        }
      ],
      "name": "OwnershipTransferred",
      "type": "event"
    },
    {
      "anonymous": false,
      "inputs": [
        {
          "components": [
            {
              "internalType": "address",
              "name": "contractBeingSold",
              "type": "address"
            },
            {
              "internalType": "address",
              "name": "sellerAddress",
              "type": "address"
            },
            {
              "internalType": "uint256",
              "name": "sellPrice",
              "type": "uint256"
            },
            {
              "internalType": "address",
              "name": "buyersAddress",
              "type": "address"
            }
          ],
          "indexed": false,
          "internalType": "struct Escrow.EscrowContracts",
          "name": "seller",
          "type": "tuple"
        }
      ],
      "name": "SellerReady",
      "type": "event"
    },
    {
      "anonymous": false,
      "inputs": [
        {
          "components": [
            {
              "internalType": "address",
              "name": "contractBeingBought",
              "type": "address"
            },
            {
              "internalType": "address",
              "name": "buyerAddress",
              "type": "address"
            },
            {
              "internalType": "uint256",
              "name": "sellPrice",
              "type": "uint256"
            }
          ],
          "indexed": false,
          "internalType": "struct Escrow.BuyersInfo",
          "name": "buyer",
          "type": "tuple"
        },
        {
          "components": [
            {
              "internalType": "address",
              "name": "contractBeingSold",
              "type": "address"
            },
            {
              "internalType": "address",
              "name": "sellerAddress",
              "type": "address"
            },
            {
              "internalType": "uint256",
              "name": "sellPrice",
              "type": "uint256"
            },
            {
              "internalType": "address",
              "name": "buyersAddress",
              "type": "address"
            }
          ],
          "indexed": false,
          "internalType": "struct Escrow.EscrowContracts",
          "name": "seller",
          "type": "tuple"
        }
      ],
      "name": "TransactionCompleted",
      "type": "event"
    },
    {
      "inputs": [
        {
          "components": [
            {
              "internalType": "address",
              "name": "contractBeingBought",
              "type": "address"
            },
            {
              "internalType": "address",
              "name": "buyerAddress",
              "type": "address"
            },
            {
              "internalType": "uint256",
              "name": "sellPrice",
              "type": "uint256"
            }
          ],
          "internalType": "struct Escrow.BuyersInfo",
          "name": "myBuyersInfo",
          "type": "tuple"
        }
      ],
      "name": "buyerSendPay",
      "outputs": [],
      "stateMutability": "payable",
      "type": "function"
    },
    {
      "inputs": [
        {
          "internalType": "address",
          "name": "",
          "type": "address"
        }
      ],
      "name": "escrowDetails",
      "outputs": [
        {
          "internalType": "address",
          "name": "contractBeingSold",
          "type": "address"
        },
        {
          "internalType": "address",
          "name": "sellerAddress",
          "type": "address"
        },
        {
          "internalType": "uint256",
          "name": "sellPrice",
          "type": "uint256"
        },
        {
          "internalType": "address",
          "name": "buyersAddress",
          "type": "address"
        }
      ],
      "stateMutability": "view",
      "type": "function"
    },
    {
      "inputs": [
        {
          "internalType": "address",
          "name": "myContract",
          "type": "address"
        }
      ],
      "name": "getSellerAmount",
      "outputs": [
        {
          "internalType": "uint256",
          "name": "",
          "type": "uint256"
        }
      ],
      "stateMutability": "view",
      "type": "function"
    },
    {
      "inputs": [],
      "name": "owner",
      "outputs": [
        {
          "internalType": "address",
          "name": "",
          "type": "address"
        }
      ],
      "stateMutability": "view",
      "type": "function"
    },
    {
      "inputs": [],
      "name": "renounceOwnership",
      "outputs": [],
      "stateMutability": "nonpayable",
      "type": "function"
    },
    {
      "inputs": [
        {
          "internalType": "address",
          "name": "contractBeingBought",
          "type": "address"
        }
      ],
      "name": "setBuyersInfo",
      "outputs": [],
      "stateMutability": "payable",
      "type": "function"
    },
    {
      "inputs": [
        {
          "internalType": "address",
          "name": "contractBeingSold",
          "type": "address"
        },
        {
          "internalType": "uint256",
          "name": "sellPrice",
          "type": "uint256"
        },
        {
          "internalType": "address",
          "name": "buyerAddress",
          "type": "address"
        }
      ],
      "name": "setContractDetail",
      "outputs": [],
      "stateMutability": "nonpayable",
      "type": "function"
    },
    {
      "inputs": [
        {
          "internalType": "address",
          "name": "newOwner",
          "type": "address"
        }
      ],
      "name": "transferOwnership",
      "outputs": [],
      "stateMutability": "nonpayable",
      "type": "function"
    }
  ],
  "bytecode": "0x608060405234801561001057600080fd5b5061002d61002261007360201b60201c565b61007b60201b60201c565b33600160006101000a81548173ffffffffffffffffffffffffffffffffffffffff021916908373ffffffffffffffffffffffffffffffffffffffff16021790555061013f565b600033905090565b60008060009054906101000a900473ffffffffffffffffffffffffffffffffffffffff169050816000806101000a81548173ffffffffffffffffffffffffffffffffffffffff021916908373ffffffffffffffffffffffffffffffffffffffff1602179055508173ffffffffffffffffffffffffffffffffffffffff168173ffffffffffffffffffffffffffffffffffffffff167f8be0079c531659141344cd1fd0a4f28419497f9722a3daafe3b4186f6b6457e060405160405180910390a35050565b61161f8061014e6000396000f3fe60806040526004361061007b5760003560e01c80638da5cb5b1161004e5780638da5cb5b1461011957806390e4bba81461014457806395810b9314610184578063f2fde38b146101a05761007b565b80631e9acdf61461008057806358c55b7e146100a9578063715018a6146100c557806378b1cf27146100dc575b600080fd5b34801561008c57600080fd5b506100a760048036038101906100a29190610e90565b6101c9565b005b6100c360048036038101906100be9190610edf565b610245565b005b3480156100d157600080fd5b506100da6103b1565b005b3480156100e857600080fd5b5061010360048036038101906100fe9190610e67565b610439565b60405161011091906112cf565b60405180910390f35b34801561012557600080fd5b5061012e610613565b60405161013b919061112b565b60405180910390f35b34801561015057600080fd5b5061016b60048036038101906101669190610e67565b61063c565b60405161017b9493929190611146565b60405180910390f35b61019e60048036038101906101999190610e67565b6106cc565b005b3480156101ac57600080fd5b506101c760048036038101906101c29190610e67565b610844565b005b6000339050600060405180608001604052808673ffffffffffffffffffffffffffffffffffffffff1681526020018373ffffffffffffffffffffffffffffffffffffffff1681526020018581526020018473ffffffffffffffffffffffffffffffffffffffff16815250905061023e8161093c565b5050505050565b600060026000836000015173ffffffffffffffffffffffffffffffffffffffff1673ffffffffffffffffffffffffffffffffffffffff1681526020019081526020016000206040518060800160405290816000820160009054906101000a900473ffffffffffffffffffffffffffffffffffffffff1673ffffffffffffffffffffffffffffffffffffffff1673ffffffffffffffffffffffffffffffffffffffff1681526020016001820160009054906101000a900473ffffffffffffffffffffffffffffffffffffffff1673ffffffffffffffffffffffffffffffffffffffff1673ffffffffffffffffffffffffffffffffffffffff168152602001600282015481526020016003820160009054906101000a900473ffffffffffffffffffffffffffffffffffffffff1673ffffffffffffffffffffffffffffffffffffffff1673ffffffffffffffffffffffffffffffffffffffff168152505090506103ad8183610a9c565b5050565b6103b9610d11565b73ffffffffffffffffffffffffffffffffffffffff166103d7610613565b73ffffffffffffffffffffffffffffffffffffffff161461042d576040517f08c379a00000000000000000000000000000000000000000000000000000000081526004016104249061120b565b60405180910390fd5b6104376000610d19565b565b600080600260008473ffffffffffffffffffffffffffffffffffffffff1673ffffffffffffffffffffffffffffffffffffffff1681526020019081526020016000206040518060800160405290816000820160009054906101000a900473ffffffffffffffffffffffffffffffffffffffff1673ffffffffffffffffffffffffffffffffffffffff1673ffffffffffffffffffffffffffffffffffffffff1681526020016001820160009054906101000a900473ffffffffffffffffffffffffffffffffffffffff1673ffffffffffffffffffffffffffffffffffffffff1673ffffffffffffffffffffffffffffffffffffffff168152602001600282015481526020016003820160009054906101000a900473ffffffffffffffffffffffffffffffffffffffff1673ffffffffffffffffffffffffffffffffffffffff1673ffffffffffffffffffffffffffffffffffffffff168152505090503373ffffffffffffffffffffffffffffffffffffffff16816060015173ffffffffffffffffffffffffffffffffffffffff1614610606576040517f08c379a00000000000000000000000000000000000000000000000000000000081526004016105fd9061124b565b60405180910390fd5b8060400151915050919050565b60008060009054906101000a900473ffffffffffffffffffffffffffffffffffffffff16905090565b60026020528060005260406000206000915090508060000160009054906101000a900473ffffffffffffffffffffffffffffffffffffffff16908060010160009054906101000a900473ffffffffffffffffffffffffffffffffffffffff16908060020154908060030160009054906101000a900473ffffffffffffffffffffffffffffffffffffffff16905084565b60003490506000339050600082141561071a576040517f08c379a00000000000000000000000000000000000000000000000000000000081526004016107119061122b565b60405180910390fd5b600060405180606001604052808573ffffffffffffffffffffffffffffffffffffffff1681526020018373ffffffffffffffffffffffffffffffffffffffff1681526020018481525090503373ffffffffffffffffffffffffffffffffffffffff16600260008673ffffffffffffffffffffffffffffffffffffffff1673ffffffffffffffffffffffffffffffffffffffff16815260200190815260200160002060030160009054906101000a900473ffffffffffffffffffffffffffffffffffffffff1673ffffffffffffffffffffffffffffffffffffffff1614610835576040517f08c379a000000000000000000000000000000000000000000000000000000000815260040161082c9061126b565b60405180910390fd5b61083e81610245565b50505050565b61084c610d11565b73ffffffffffffffffffffffffffffffffffffffff1661086a610613565b73ffffffffffffffffffffffffffffffffffffffff16146108c0576040517f08c379a00000000000000000000000000000000000000000000000000000000081526004016108b79061120b565b60405180910390fd5b600073ffffffffffffffffffffffffffffffffffffffff168173ffffffffffffffffffffffffffffffffffffffff161415610930576040517f08c379a00000000000000000000000000000000000000000000000000000000081526004016109279061118b565b60405180910390fd5b61093981610d19565b50565b8060026000836000015173ffffffffffffffffffffffffffffffffffffffff1673ffffffffffffffffffffffffffffffffffffffff16815260200190815260200160002060008201518160000160006101000a81548173ffffffffffffffffffffffffffffffffffffffff021916908373ffffffffffffffffffffffffffffffffffffffff16021790555060208201518160010160006101000a81548173ffffffffffffffffffffffffffffffffffffffff021916908373ffffffffffffffffffffffffffffffffffffffff1602179055506040820151816002015560608201518160030160006101000a81548173ffffffffffffffffffffffffffffffffffffffff021916908373ffffffffffffffffffffffffffffffffffffffff1602179055509050507f7d23599541cf4a0e5876bbd3ad9cf554c5ea9b04fe00624271cc99e7dfc27a1c81604051610a9191906112b4565b60405180910390a150565b8060400151826040015114610ae6576040517f08c379a0000000000000000000000000000000000000000000000000000000008152600401610add906111cb565b60405180910390fd5b806000015173ffffffffffffffffffffffffffffffffffffffff16826000015173ffffffffffffffffffffffffffffffffffffffff1614610b5c576040517f08c379a0000000000000000000000000000000000000000000000000000000008152600401610b53906111ab565b60405180910390fd5b6000826020015173ffffffffffffffffffffffffffffffffffffffff168260400151604051610b8a90611116565b60006040518083038185875af1925050503d8060008114610bc7576040519150601f19603f3d011682016040523d82523d6000602084013e610bcc565b606091505b5050905080610c10576040517f08c379a0000000000000000000000000000000000000000000000000000000008152600401610c07906111eb565b60405180910390fd5b7f05d2c34b032f3aa7b67bd9467b3e53f718af5ef3c7f41a372b0d88c3caa240b08284604051610c4192919061128b565b60405180910390a160026000846000015173ffffffffffffffffffffffffffffffffffffffff1673ffffffffffffffffffffffffffffffffffffffff168152602001908152602001600020600080820160006101000a81549073ffffffffffffffffffffffffffffffffffffffff02191690556001820160006101000a81549073ffffffffffffffffffffffffffffffffffffffff021916905560028201600090556003820160006101000a81549073ffffffffffffffffffffffffffffffffffffffff02191690555050505050565b600033905090565b60008060009054906101000a900473ffffffffffffffffffffffffffffffffffffffff169050816000806101000a81548173ffffffffffffffffffffffffffffffffffffffff021916908373ffffffffffffffffffffffffffffffffffffffff1602179055508173ffffffffffffffffffffffffffffffffffffffff168173ffffffffffffffffffffffffffffffffffffffff167f8be0079c531659141344cd1fd0a4f28419497f9722a3daafe3b4186f6b6457e060405160405180910390a35050565b600081359050610dec816115bb565b92915050565b600060608284031215610e0457600080fd5b610e0e60606112ea565b90506000610e1e84828501610ddd565b6000830152506020610e3284828501610ddd565b6020830152506040610e4684828501610e52565b60408301525092915050565b600081359050610e61816115d2565b92915050565b600060208284031215610e7957600080fd5b6000610e8784828501610ddd565b91505092915050565b600080600060608486031215610ea557600080fd5b6000610eb386828701610ddd565b9350506020610ec486828701610e52565b9250506040610ed586828701610ddd565b9150509250925092565b600060608284031215610ef157600080fd5b6000610eff84828501610df2565b91505092915050565b610f118161132b565b82525050565b610f208161132b565b82525050565b6000610f3360268361131a565b9150610f3e826113d8565b604082019050919050565b6000610f5660258361131a565b9150610f6182611427565b604082019050919050565b6000610f7960228361131a565b9150610f8482611476565b604082019050919050565b6000610f9c60208361131a565b9150610fa7826114c5565b602082019050919050565b6000610fbf60208361131a565b9150610fca826114ee565b602082019050919050565b6000610fe2601d8361131a565b9150610fed82611517565b602082019050919050565b600061100560008361130f565b915061101082611540565b600082019050919050565b600061102860198361131a565b915061103382611543565b602082019050919050565b600061104b60228361131a565b91506110568261156c565b604082019050919050565b6060820160008201516110776000850182610f08565b50602082015161108a6020850182610f08565b50604082015161109d60408501826110f8565b50505050565b6080820160008201516110b96000850182610f08565b5060208201516110cc6020850182610f08565b5060408201516110df60408501826110f8565b5060608201516110f26060850182610f08565b50505050565b6111018161135d565b82525050565b6111108161135d565b82525050565b600061112182610ff8565b9150819050919050565b60006020820190506111406000830184610f17565b92915050565b600060808201905061115b6000830187610f17565b6111686020830186610f17565b6111756040830185611107565b6111826060830184610f17565b95945050505050565b600060208201905081810360008301526111a481610f26565b9050919050565b600060208201905081810360008301526111c481610f49565b9050919050565b600060208201905081810360008301526111e481610f6c565b9050919050565b6000602082019050818103600083015261120481610f8f565b9050919050565b6000602082019050818103600083015261122481610fb2565b9050919050565b6000602082019050818103600083015261124481610fd5565b9050919050565b600060208201905081810360008301526112648161101b565b9050919050565b600060208201905081810360008301526112848161103e565b9050919050565b600060e0820190506112a06000830185611061565b6112ad60608301846110a3565b9392505050565b60006080820190506112c960008301846110a3565b92915050565b60006020820190506112e46000830184611107565b92915050565b60006112f4611305565b90506113008282611367565b919050565b6000604051905090565b600081905092915050565b600082825260208201905092915050565b60006113368261133d565b9050919050565b600073ffffffffffffffffffffffffffffffffffffffff82169050919050565b6000819050919050565b611370826113c7565b810181811067ffffffffffffffff8211171561138f5761138e611398565b5b80604052505050565b7f4e487b7100000000000000000000000000000000000000000000000000000000600052604160045260246000fd5b6000601f19601f8301169050919050565b7f4f776e61626c653a206e6577206f776e657220697320746865207a65726f206160008201527f6464726573730000000000000000000000000000000000000000000000000000602082015250565b7f436f6e747261637420736f6c6420616e6420626f75676874206e6f742074686560008201527f2073616d65000000000000000000000000000000000000000000000000000000602082015250565b7f53656c6c20707269636520646f65736e2774206d61746368206275792070726960008201527f6365000000000000000000000000000000000000000000000000000000000000602082015250565b7f5061796d656e74204661696c656420746f2073656c6c65722061646472657373600082015250565b7f4f776e61626c653a2063616c6c6572206973206e6f7420746865206f776e6572600082015250565b7f427579657220646964206e6f742073656e6420616e7920616d6f756e74000000600082015250565b50565b7f4f6e6c792062757965722063616e2073656520616d6f756e7400000000000000600082015250565b7f53656c6c6572206164647265737320646964206e6f74206d617463682062757960008201527f6572000000000000000000000000000000000000000000000000000000000000602082015250565b6115c48161132b565b81146115cf57600080fd5b50565b6115db8161135d565b81146115e657600080fd5b5056fea2646970667358221220bc6ca0b76f4d54947361bbf3537760ad17415c130811056d50207641004338b164736f6c63430008010033",
  "linkReferences": {},
  "deployedLinkReferences": {}
}