{
  "_format": "hh-sol-artifact-1",
  "contractName": "Escrow",
  "sourceName": "contracts/Escrow.sol",
  "abi": [
    {
      "anonymous": false,
      "inputs": [
        {
          "components": [
            {
              "internalType": "address",
              "name": "contractItem",
              "type": "address"
            },
            {
              "internalType": "address",
              "name": "seller",
              "type": "address"
            },
            {
              "internalType": "address",
              "name": "buyer",
              "type": "address"
            },
            {
              "internalType": "uint256",
              "name": "price",
              "type": "uint256"
            },
            {
              "internalType": "enum Escrow.Status",
              "name": "status",
              "type": "uint8"
            }
          ],
          "indexed": false,
          "internalType": "struct Escrow.EscrowItem",
          "name": "canceledSeller",
          "type": "tuple"
        }
      ],
      "name": "ContractDelisted",
      "type": "event"
    },
    {
      "anonymous": false,
      "inputs": [
        {
          "components": [
            {
              "internalType": "address",
              "name": "contractItem",
              "type": "address"
            },
            {
              "internalType": "address",
              "name": "seller",
              "type": "address"
            },
            {
              "internalType": "address",
              "name": "buyer",
              "type": "address"
            },
            {
              "internalType": "uint256",
              "name": "price",
              "type": "uint256"
            },
            {
              "internalType": "enum Escrow.Status",
              "name": "status",
              "type": "uint8"
            }
          ],
          "indexed": false,
          "internalType": "struct Escrow.EscrowItem",
          "name": "seller",
          "type": "tuple"
        }
      ],
      "name": "SellerReady",
      "type": "event"
    },
    {
      "anonymous": false,
      "inputs": [
        {
          "components": [
            {
              "internalType": "address",
              "name": "contractItem",
              "type": "address"
            },
            {
              "internalType": "address",
              "name": "seller",
              "type": "address"
            },
            {
              "internalType": "address",
              "name": "buyer",
              "type": "address"
            },
            {
              "internalType": "uint256",
              "name": "price",
              "type": "uint256"
            },
            {
              "internalType": "enum Escrow.Status",
              "name": "status",
              "type": "uint8"
            }
          ],
          "indexed": false,
          "internalType": "struct Escrow.EscrowItem",
          "name": "item",
          "type": "tuple"
        }
      ],
      "name": "TransactionCompleted",
      "type": "event"
    },
    {
      "inputs": [
        {
          "internalType": "address",
          "name": "contractBeingBought",
          "type": "address"
        }
      ],
      "name": "buyerSendPay",
      "outputs": [],
      "stateMutability": "payable",
      "type": "function"
    },
    {
      "inputs": [
        {
          "internalType": "address",
          "name": "contractToDelist",
          "type": "address"
        }
      ],
      "name": "delist",
      "outputs": [],
      "stateMutability": "nonpayable",
      "type": "function"
    },
    {
      "inputs": [
        {
          "internalType": "address",
          "name": "",
          "type": "address"
        }
      ],
      "name": "escrowDetails",
      "outputs": [
        {
          "internalType": "address",
          "name": "contractItem",
          "type": "address"
        },
        {
          "internalType": "address",
          "name": "seller",
          "type": "address"
        },
        {
          "internalType": "address",
          "name": "buyer",
          "type": "address"
        },
        {
          "internalType": "uint256",
          "name": "price",
          "type": "uint256"
        },
        {
          "internalType": "enum Escrow.Status",
          "name": "status",
          "type": "uint8"
        }
      ],
      "stateMutability": "view",
      "type": "function"
    },
    {
      "inputs": [
        {
          "internalType": "address",
          "name": "myContract",
          "type": "address"
        }
      ],
      "name": "getSellerAmount",
      "outputs": [
        {
          "internalType": "uint256",
          "name": "",
          "type": "uint256"
        }
      ],
      "stateMutability": "view",
      "type": "function"
    },
    {
      "inputs": [
        {
          "internalType": "address",
          "name": "contractBeingSold",
          "type": "address"
        },
        {
          "internalType": "uint256",
          "name": "sellPrice",
          "type": "uint256"
        },
        {
          "internalType": "address",
          "name": "buyerAddress",
          "type": "address"
        }
      ],
      "name": "setContractDetail",
      "outputs": [],
      "stateMutability": "nonpayable",
      "type": "function"
    }
  ],
  "bytecode": "0x608060405234801561001057600080fd5b50611923806100206000396000f3fe60806040526004361061004a5760003560e01c80631e9acdf61461004f5780636b2cc75c1461007857806378b1cf27146100a157806390e4bba8146100de578063cee6a7c21461011f575b600080fd5b34801561005b57600080fd5b50610076600480360381019061007191906111f1565b61013b565b005b34801561008457600080fd5b5061009f600480360381019061009a919061119f565b61047f565b005b3480156100ad57600080fd5b506100c860048036038101906100c3919061119f565b61084d565b6040516100d591906115db565b60405180910390f35b3480156100ea57600080fd5b506101056004803603810190610100919061119f565b610aad565b60405161011695949392919061146d565b60405180910390f35b6101396004803603810190610134919061119f565b610b50565b005b3073ffffffffffffffffffffffffffffffffffffffff168373ffffffffffffffffffffffffffffffffffffffff16638da5cb5b6040518163ffffffff1660e01b815260040160206040518083038186803b15801561019857600080fd5b505afa1580156101ac573d6000803e3d6000fd5b505050506040513d601f19601f820116820180604052508101906101d091906111c8565b73ffffffffffffffffffffffffffffffffffffffff1614610226576040517f08c379a000000000000000000000000000000000000000000000000000000000815260040161021d90611520565b60405180910390fd5b60006040518060a001604052808573ffffffffffffffffffffffffffffffffffffffff1681526020013373ffffffffffffffffffffffffffffffffffffffff1681526020018373ffffffffffffffffffffffffffffffffffffffff1681526020018481526020016001808111156102c6577f4e487b7100000000000000000000000000000000000000000000000000000000600052602160045260246000fd5b8152509050806000808673ffffffffffffffffffffffffffffffffffffffff1673ffffffffffffffffffffffffffffffffffffffff16815260200190815260200160002060008201518160000160006101000a81548173ffffffffffffffffffffffffffffffffffffffff021916908373ffffffffffffffffffffffffffffffffffffffff16021790555060208201518160010160006101000a81548173ffffffffffffffffffffffffffffffffffffffff021916908373ffffffffffffffffffffffffffffffffffffffff16021790555060408201518160020160006101000a81548173ffffffffffffffffffffffffffffffffffffffff021916908373ffffffffffffffffffffffffffffffffffffffff1602179055506060820151816003015560808201518160040160006101000a81548160ff0219169083600181111561043a577f4e487b7100000000000000000000000000000000000000000000000000000000600052602160045260246000fd5b02179055509050507f4c17b4255cf03f25ea1a7c3cebe34a7126a5d637ddc89359c6ffbeb9cc58e6298160405161047191906115c0565b60405180910390a150505050565b60008060008373ffffffffffffffffffffffffffffffffffffffff1673ffffffffffffffffffffffffffffffffffffffff1681526020019081526020016000206040518060a00160405290816000820160009054906101000a900473ffffffffffffffffffffffffffffffffffffffff1673ffffffffffffffffffffffffffffffffffffffff1673ffffffffffffffffffffffffffffffffffffffff1681526020016001820160009054906101000a900473ffffffffffffffffffffffffffffffffffffffff1673ffffffffffffffffffffffffffffffffffffffff1673ffffffffffffffffffffffffffffffffffffffff1681526020016002820160009054906101000a900473ffffffffffffffffffffffffffffffffffffffff1673ffffffffffffffffffffffffffffffffffffffff1673ffffffffffffffffffffffffffffffffffffffff168152602001600382015481526020016004820160009054906101000a900460ff166001811115610621577f4e487b7100000000000000000000000000000000000000000000000000000000600052602160045260246000fd5b6001811115610659577f4e487b7100000000000000000000000000000000000000000000000000000000600052602160045260246000fd5b8152505090503373ffffffffffffffffffffffffffffffffffffffff16816020015173ffffffffffffffffffffffffffffffffffffffff16146106d1576040517f08c379a00000000000000000000000000000000000000000000000000000000081526004016106c890611560565b60405180910390fd5b8173ffffffffffffffffffffffffffffffffffffffff1663f2fde38b82602001516040518263ffffffff1660e01b815260040161070e9190611452565b600060405180830381600087803b15801561072857600080fd5b505af115801561073c573d6000803e3d6000fd5b505050506000808373ffffffffffffffffffffffffffffffffffffffff1673ffffffffffffffffffffffffffffffffffffffff168152602001908152602001600020600080820160006101000a81549073ffffffffffffffffffffffffffffffffffffffff02191690556001820160006101000a81549073ffffffffffffffffffffffffffffffffffffffff02191690556002820160006101000a81549073ffffffffffffffffffffffffffffffffffffffff021916905560038201600090556004820160006101000a81549060ff021916905550507fa6f118d3928f1177bddae5bb659c023bb2971ff9eb3d779b22560fc0ef0ea1858160405161084191906115c0565b60405180910390a15050565b6000806000808473ffffffffffffffffffffffffffffffffffffffff1673ffffffffffffffffffffffffffffffffffffffff1681526020019081526020016000206040518060a00160405290816000820160009054906101000a900473ffffffffffffffffffffffffffffffffffffffff1673ffffffffffffffffffffffffffffffffffffffff1673ffffffffffffffffffffffffffffffffffffffff1681526020016001820160009054906101000a900473ffffffffffffffffffffffffffffffffffffffff1673ffffffffffffffffffffffffffffffffffffffff1673ffffffffffffffffffffffffffffffffffffffff1681526020016002820160009054906101000a900473ffffffffffffffffffffffffffffffffffffffff1673ffffffffffffffffffffffffffffffffffffffff1673ffffffffffffffffffffffffffffffffffffffff168152602001600382015481526020016004820160009054906101000a900460ff1660018111156109f0577f4e487b7100000000000000000000000000000000000000000000000000000000600052602160045260246000fd5b6001811115610a28577f4e487b7100000000000000000000000000000000000000000000000000000000600052602160045260246000fd5b8152505090503373ffffffffffffffffffffffffffffffffffffffff16816040015173ffffffffffffffffffffffffffffffffffffffff1614610aa0576040517f08c379a0000000000000000000000000000000000000000000000000000000008152600401610a9790611580565b60405180910390fd5b8060600151915050919050565b60006020528060005260406000206000915090508060000160009054906101000a900473ffffffffffffffffffffffffffffffffffffffff16908060010160009054906101000a900473ffffffffffffffffffffffffffffffffffffffff16908060020160009054906101000a900473ffffffffffffffffffffffffffffffffffffffff16908060030154908060040160009054906101000a900460ff16905085565b6000341415610b94576040517f08c379a0000000000000000000000000000000000000000000000000000000008152600401610b8b906115a0565b60405180910390fd5b3073ffffffffffffffffffffffffffffffffffffffff168173ffffffffffffffffffffffffffffffffffffffff16638da5cb5b6040518163ffffffff1660e01b815260040160206040518083038186803b158015610bf157600080fd5b505afa158015610c05573d6000803e3d6000fd5b505050506040513d601f19601f82011682018060405250810190610c2991906111c8565b73ffffffffffffffffffffffffffffffffffffffff1614610c7f576040517f08c379a0000000000000000000000000000000000000000000000000000000008152600401610c7690611540565b60405180910390fd5b3373ffffffffffffffffffffffffffffffffffffffff166000808373ffffffffffffffffffffffffffffffffffffffff1673ffffffffffffffffffffffffffffffffffffffff16815260200190815260200160002060020160009054906101000a900473ffffffffffffffffffffffffffffffffffffffff1673ffffffffffffffffffffffffffffffffffffffff1614610d4e576040517f08c379a0000000000000000000000000000000000000000000000000000000008152600401610d45906114e0565b60405180910390fd5b60008060008373ffffffffffffffffffffffffffffffffffffffff1673ffffffffffffffffffffffffffffffffffffffff1681526020019081526020016000206040518060a00160405290816000820160009054906101000a900473ffffffffffffffffffffffffffffffffffffffff1673ffffffffffffffffffffffffffffffffffffffff1673ffffffffffffffffffffffffffffffffffffffff1681526020016001820160009054906101000a900473ffffffffffffffffffffffffffffffffffffffff1673ffffffffffffffffffffffffffffffffffffffff1673ffffffffffffffffffffffffffffffffffffffff1681526020016002820160009054906101000a900473ffffffffffffffffffffffffffffffffffffffff1673ffffffffffffffffffffffffffffffffffffffff1673ffffffffffffffffffffffffffffffffffffffff168152602001600382015481526020016004820160009054906101000a900460ff166001811115610ef0577f4e487b7100000000000000000000000000000000000000000000000000000000600052602160045260246000fd5b6001811115610f28577f4e487b7100000000000000000000000000000000000000000000000000000000600052602160045260246000fd5b815250509050610f3781610f3b565b5050565b34816060015114610f81576040517f08c379a0000000000000000000000000000000000000000000000000000000008152600401610f78906114c0565b60405180910390fd5b6000816020015173ffffffffffffffffffffffffffffffffffffffff168260600151604051610faf9061143d565b60006040518083038185875af1925050503d8060008114610fec576040519150601f19603f3d011682016040523d82523d6000602084013e610ff1565b606091505b5050905080611035576040517f08c379a000000000000000000000000000000000000000000000000000000000815260040161102c90611500565b60405180910390fd5b816000015173ffffffffffffffffffffffffffffffffffffffff1663f2fde38b83604001516040518263ffffffff1660e01b81526004016110769190611452565b600060405180830381600087803b15801561109057600080fd5b505af11580156110a4573d6000803e3d6000fd5b505050507f286326db6af0ddee185fd97539fbc787a8e34db2785ec3510ff4a905b55dc4ba826040516110d791906115c0565b60405180910390a160008260800190600181111561111e577f4e487b7100000000000000000000000000000000000000000000000000000000600052602160045260246000fd5b90816001811115611158577f4e487b7100000000000000000000000000000000000000000000000000000000600052602160045260246000fd5b815250505050565b60008135905061116f816118bf565b92915050565b600081519050611184816118bf565b92915050565b600081359050611199816118d6565b92915050565b6000602082840312156111b157600080fd5b60006111bf84828501611160565b91505092915050565b6000602082840312156111da57600080fd5b60006111e884828501611175565b91505092915050565b60008060006060848603121561120657600080fd5b600061121486828701611160565b93505060206112258682870161118a565b925050604061123686828701611160565b9150509250925092565b61124981611612565b82525050565b61125881611612565b82525050565b61126781611661565b82525050565b61127681611661565b82525050565b6000611289602983611601565b9150611294826116a2565b604082019050919050565b60006112ac602283611601565b91506112b7826116f1565b604082019050919050565b60006112cf602883611601565b91506112da82611740565b604082019050919050565b60006112f2603683611601565b91506112fd8261178f565b604082019050919050565b6000611315603283611601565b9150611320826117de565b604082019050919050565b6000611338601683611601565b91506113438261182d565b602082019050919050565b600061135b601c83611601565b915061136682611856565b602082019050919050565b600061137e601e83611601565b91506113898261187f565b602082019050919050565b60006113a16000836115f6565b91506113ac826118a8565b600082019050919050565b60a0820160008201516113cd6000850182611240565b5060208201516113e06020850182611240565b5060408201516113f36040850182611240565b506060820151611406606085018261141f565b506080820151611419608085018261125e565b50505050565b61142881611657565b82525050565b61143781611657565b82525050565b600061144882611394565b9150819050919050565b6000602082019050611467600083018461124f565b92915050565b600060a082019050611482600083018861124f565b61148f602083018761124f565b61149c604083018661124f565b6114a9606083018561142e565b6114b6608083018461126d565b9695505050505050565b600060208201905081810360008301526114d98161127c565b9050919050565b600060208201905081810360008301526114f98161129f565b9050919050565b60006020820190508181036000830152611519816112c2565b9050919050565b60006020820190508181036000830152611539816112e5565b9050919050565b6000602082019050818103600083015261155981611308565b9050919050565b600060208201905081810360008301526115798161132b565b9050919050565b600060208201905081810360008301526115998161134e565b9050919050565b600060208201905081810360008301526115b981611371565b9050919050565b600060a0820190506115d560008301846113b7565b92915050565b60006020820190506115f0600083018461142e565b92915050565b600081905092915050565b600082825260208201905092915050565b600061161d82611637565b9050919050565b6000819050611632826118ab565b919050565b600073ffffffffffffffffffffffffffffffffffffffff82169050919050565b6000819050919050565b600061166c82611624565b9050919050565b7f4e487b7100000000000000000000000000000000000000000000000000000000600052602160045260246000fd5b7f427579657220646964206e6f742073656e6420636f7272656374207061796d6560008201527f6e7420616d6f756e740000000000000000000000000000000000000000000000602082015250565b7f4275796572206164647265737320646964206e6f74206d617463682073656c6c60008201527f6572000000000000000000000000000000000000000000000000000000000000602082015250565b7f5061796d656e74206661696c656420746f2073656e6420746f2073656c6c657260008201527f2061646472657373000000000000000000000000000000000000000000000000602082015250565b7f53656c6c657220686173206e6f74207472616e7366657272656420746865206f60008201527f776e65727368697020746f2074686520657363726f7700000000000000000000602082015250565b7f53656c6c657220686173206e6f74207472616e73666572726564206f776e657260008201527f7368697020746f2074686520657363726f770000000000000000000000000000602082015250565b7f4f6e6c792073656c6c65722063616e2064656c69737400000000000000000000600082015250565b7f4f6e6c792062757965722063616e207365652074686520707269636500000000600082015250565b7f427579657220646964206e6f742073656e6420616e79207061796d656e740000600082015250565b50565b600281106118bc576118bb611673565b5b50565b6118c881611612565b81146118d357600080fd5b50565b6118df81611657565b81146118ea57600080fd5b5056fea2646970667358221220a09c50d5380de65523d8f117c47634faa7dea51f00a1deef98097b6043b2a8db64736f6c63430008010033",
  "linkReferences": {},
  "deployedLinkReferences": {}
}