{
  "_format": "hh-sol-artifact-1",
  "contractName": "Escrow",
  "sourceName": "contracts/Escrow.sol",
  "abi": [
    {
      "inputs": [],
      "stateMutability": "nonpayable",
      "type": "constructor"
    },
    {
      "anonymous": false,
      "inputs": [
        {
          "components": [
            {
              "internalType": "address",
              "name": "contractBeingSold",
              "type": "address"
            },
            {
              "internalType": "address",
              "name": "sellerAddress",
              "type": "address"
            },
            {
              "internalType": "uint256",
              "name": "sellPrice",
              "type": "uint256"
            },
            {
              "internalType": "address",
              "name": "buyersAddress",
              "type": "address"
            }
          ],
          "indexed": false,
          "internalType": "struct Escrow.EscrowContracts",
          "name": "seller",
          "type": "tuple"
        }
      ],
      "name": "SellerReady",
      "type": "event"
    },
    {
      "anonymous": false,
      "inputs": [
        {
          "components": [
            {
              "internalType": "address",
              "name": "contractBeingBought",
              "type": "address"
            },
            {
              "internalType": "address",
              "name": "buyerAddress",
              "type": "address"
            },
            {
              "internalType": "uint256",
              "name": "sellPrice",
              "type": "uint256"
            }
          ],
          "indexed": false,
          "internalType": "struct Escrow.BuyersInfo",
          "name": "buyer",
          "type": "tuple"
        },
        {
          "components": [
            {
              "internalType": "address",
              "name": "contractBeingSold",
              "type": "address"
            },
            {
              "internalType": "address",
              "name": "sellerAddress",
              "type": "address"
            },
            {
              "internalType": "uint256",
              "name": "sellPrice",
              "type": "uint256"
            },
            {
              "internalType": "address",
              "name": "buyersAddress",
              "type": "address"
            }
          ],
          "indexed": false,
          "internalType": "struct Escrow.EscrowContracts",
          "name": "seller",
          "type": "tuple"
        }
      ],
      "name": "TransactionCompleted",
      "type": "event"
    },
    {
      "inputs": [
        {
          "internalType": "address",
          "name": "contractBeingBought",
          "type": "address"
        }
      ],
      "name": "buyerSendPay",
      "outputs": [],
      "stateMutability": "payable",
      "type": "function"
    },
    {
      "inputs": [
        {
          "internalType": "address",
          "name": "",
          "type": "address"
        }
      ],
      "name": "escrowDetails",
      "outputs": [
        {
          "internalType": "address",
          "name": "contractBeingSold",
          "type": "address"
        },
        {
          "internalType": "address",
          "name": "sellerAddress",
          "type": "address"
        },
        {
          "internalType": "uint256",
          "name": "sellPrice",
          "type": "uint256"
        },
        {
          "internalType": "address",
          "name": "buyersAddress",
          "type": "address"
        }
      ],
      "stateMutability": "view",
      "type": "function"
    },
    {
      "inputs": [
        {
          "internalType": "address",
          "name": "myContract",
          "type": "address"
        }
      ],
      "name": "getSellerAmount",
      "outputs": [
        {
          "internalType": "uint256",
          "name": "",
          "type": "uint256"
        }
      ],
      "stateMutability": "view",
      "type": "function"
    },
    {
      "inputs": [
        {
          "internalType": "address",
          "name": "contractBeingSold",
          "type": "address"
        },
        {
          "internalType": "uint256",
          "name": "sellPrice",
          "type": "uint256"
        },
        {
          "internalType": "address",
          "name": "buyerAddress",
          "type": "address"
        }
      ],
      "name": "setContractDetail",
      "outputs": [],
      "stateMutability": "nonpayable",
      "type": "function"
    }
  ],
  "bytecode": "0x608060405234801561001057600080fd5b50336000806101000a81548173ffffffffffffffffffffffffffffffffffffffff021916908373ffffffffffffffffffffffffffffffffffffffff1602179055506112f6806100606000396000f3fe60806040526004361061003f5760003560e01c80631e9acdf61461004457806378b1cf271461006d57806390e4bba8146100aa578063cee6a7c2146100ea575b600080fd5b34801561005057600080fd5b5061006b60048036038101906100669190610c92565b610106565b005b34801561007957600080fd5b50610094600480360381019061008f9190610c40565b610182565b6040516100a19190611065565b60405180910390f35b3480156100b657600080fd5b506100d160048036038101906100cc9190610c40565b61035c565b6040516100e19493929190610efc565b60405180910390f35b61010460048036038101906100ff9190610c40565b6103ec565b005b6000339050600060405180608001604052808673ffffffffffffffffffffffffffffffffffffffff1681526020018373ffffffffffffffffffffffffffffffffffffffff1681526020018581526020018473ffffffffffffffffffffffffffffffffffffffff16815250905061017b816106c4565b5050505050565b600080600160008473ffffffffffffffffffffffffffffffffffffffff1673ffffffffffffffffffffffffffffffffffffffff1681526020019081526020016000206040518060800160405290816000820160009054906101000a900473ffffffffffffffffffffffffffffffffffffffff1673ffffffffffffffffffffffffffffffffffffffff1673ffffffffffffffffffffffffffffffffffffffff1681526020016001820160009054906101000a900473ffffffffffffffffffffffffffffffffffffffff1673ffffffffffffffffffffffffffffffffffffffff1673ffffffffffffffffffffffffffffffffffffffff168152602001600282015481526020016003820160009054906101000a900473ffffffffffffffffffffffffffffffffffffffff1673ffffffffffffffffffffffffffffffffffffffff1673ffffffffffffffffffffffffffffffffffffffff168152505090503373ffffffffffffffffffffffffffffffffffffffff16816060015173ffffffffffffffffffffffffffffffffffffffff161461034f576040517f08c379a000000000000000000000000000000000000000000000000000000000815260040161034690610fe1565b60405180910390fd5b8060400151915050919050565b60016020528060005260406000206000915090508060000160009054906101000a900473ffffffffffffffffffffffffffffffffffffffff16908060010160009054906101000a900473ffffffffffffffffffffffffffffffffffffffff16908060020154908060030160009054906101000a900473ffffffffffffffffffffffffffffffffffffffff16905084565b60003490506000339050600082141561043a576040517f08c379a000000000000000000000000000000000000000000000000000000000815260040161043190610fc1565b60405180910390fd5b600060405180606001604052808573ffffffffffffffffffffffffffffffffffffffff1681526020018373ffffffffffffffffffffffffffffffffffffffff168152602001848152509050600060016000836000015173ffffffffffffffffffffffffffffffffffffffff1673ffffffffffffffffffffffffffffffffffffffff1681526020019081526020016000206040518060800160405290816000820160009054906101000a900473ffffffffffffffffffffffffffffffffffffffff1673ffffffffffffffffffffffffffffffffffffffff1673ffffffffffffffffffffffffffffffffffffffff1681526020016001820160009054906101000a900473ffffffffffffffffffffffffffffffffffffffff1673ffffffffffffffffffffffffffffffffffffffff1673ffffffffffffffffffffffffffffffffffffffff168152602001600282015481526020016003820160009054906101000a900473ffffffffffffffffffffffffffffffffffffffff1673ffffffffffffffffffffffffffffffffffffffff1673ffffffffffffffffffffffffffffffffffffffff168152505090503373ffffffffffffffffffffffffffffffffffffffff16600160008773ffffffffffffffffffffffffffffffffffffffff1673ffffffffffffffffffffffffffffffffffffffff16815260200190815260200160002060030160009054906101000a900473ffffffffffffffffffffffffffffffffffffffff1673ffffffffffffffffffffffffffffffffffffffff16146106b3576040517f08c379a00000000000000000000000000000000000000000000000000000000081526004016106aa90611001565b60405180910390fd5b6106bd8183610919565b5050505050565b6000816000015173ffffffffffffffffffffffffffffffffffffffff1663893d20e86040518163ffffffff1660e01b815260040160206040518083038186803b15801561071057600080fd5b505afa158015610724573d6000803e3d6000fd5b505050506040513d601f19601f820116820180604052508101906107489190610c69565b90503073ffffffffffffffffffffffffffffffffffffffff168173ffffffffffffffffffffffffffffffffffffffff16146107b8576040517f08c379a00000000000000000000000000000000000000000000000000000000081526004016107af90610fa1565b60405180910390fd5b8160016000846000015173ffffffffffffffffffffffffffffffffffffffff1673ffffffffffffffffffffffffffffffffffffffff16815260200190815260200160002060008201518160000160006101000a81548173ffffffffffffffffffffffffffffffffffffffff021916908373ffffffffffffffffffffffffffffffffffffffff16021790555060208201518160010160006101000a81548173ffffffffffffffffffffffffffffffffffffffff021916908373ffffffffffffffffffffffffffffffffffffffff1602179055506040820151816002015560608201518160030160006101000a81548173ffffffffffffffffffffffffffffffffffffffff021916908373ffffffffffffffffffffffffffffffffffffffff1602179055509050507f7d23599541cf4a0e5876bbd3ad9cf554c5ea9b04fe00624271cc99e7dfc27a1c8260405161090d919061104a565b60405180910390a15050565b8060400151826040015114610963576040517f08c379a000000000000000000000000000000000000000000000000000000000815260040161095a90610f61565b60405180910390fd5b806000015173ffffffffffffffffffffffffffffffffffffffff16826000015173ffffffffffffffffffffffffffffffffffffffff16146109d9576040517f08c379a00000000000000000000000000000000000000000000000000000000081526004016109d090610f41565b60405180910390fd5b6000826020015173ffffffffffffffffffffffffffffffffffffffff168360400151604051610a0790610ecc565b60006040518083038185875af1925050503d8060008114610a44576040519150601f19603f3d011682016040523d82523d6000602084013e610a49565b606091505b5050905080610a8d576040517f08c379a0000000000000000000000000000000000000000000000000000000008152600401610a8490610f81565b60405180910390fd5b826000015173ffffffffffffffffffffffffffffffffffffffff16634fb2e45d83602001516040518263ffffffff1660e01b8152600401610ace9190610ee1565b600060405180830381600087803b158015610ae857600080fd5b505af1158015610afc573d6000803e3d6000fd5b505050507f05d2c34b032f3aa7b67bd9467b3e53f718af5ef3c7f41a372b0d88c3caa240b08284604051610b31929190611021565b60405180910390a160016000846000015173ffffffffffffffffffffffffffffffffffffffff1673ffffffffffffffffffffffffffffffffffffffff168152602001908152602001600020600080820160006101000a81549073ffffffffffffffffffffffffffffffffffffffff02191690556001820160006101000a81549073ffffffffffffffffffffffffffffffffffffffff021916905560028201600090556003820160006101000a81549073ffffffffffffffffffffffffffffffffffffffff02191690555050505050565b600081359050610c1081611292565b92915050565b600081519050610c2581611292565b92915050565b600081359050610c3a816112a9565b92915050565b600060208284031215610c5257600080fd5b6000610c6084828501610c01565b91505092915050565b600060208284031215610c7b57600080fd5b6000610c8984828501610c16565b91505092915050565b600080600060608486031215610ca757600080fd5b6000610cb586828701610c01565b9350506020610cc686828701610c2b565b9250506040610cd786828701610c01565b9150509250925092565b610cea8161109c565b82525050565b610cf98161109c565b82525050565b6000610d0c60258361108b565b9150610d17826110d8565b604082019050919050565b6000610d2f60228361108b565b9150610d3a82611127565b604082019050919050565b6000610d5260208361108b565b9150610d5d82611176565b602082019050919050565b6000610d7560278361108b565b9150610d808261119f565b604082019050919050565b6000610d98601d8361108b565b9150610da3826111ee565b602082019050919050565b6000610dbb600083611080565b9150610dc682611217565b600082019050919050565b6000610dde60198361108b565b9150610de98261121a565b602082019050919050565b6000610e0160228361108b565b9150610e0c82611243565b604082019050919050565b606082016000820151610e2d6000850182610ce1565b506020820151610e406020850182610ce1565b506040820151610e536040850182610eae565b50505050565b608082016000820151610e6f6000850182610ce1565b506020820151610e826020850182610ce1565b506040820151610e956040850182610eae565b506060820151610ea86060850182610ce1565b50505050565b610eb7816110ce565b82525050565b610ec6816110ce565b82525050565b6000610ed782610dae565b9150819050919050565b6000602082019050610ef66000830184610cf0565b92915050565b6000608082019050610f116000830187610cf0565b610f1e6020830186610cf0565b610f2b6040830185610ebd565b610f386060830184610cf0565b95945050505050565b60006020820190508181036000830152610f5a81610cff565b9050919050565b60006020820190508181036000830152610f7a81610d22565b9050919050565b60006020820190508181036000830152610f9a81610d45565b9050919050565b60006020820190508181036000830152610fba81610d68565b9050919050565b60006020820190508181036000830152610fda81610d8b565b9050919050565b60006020820190508181036000830152610ffa81610dd1565b9050919050565b6000602082019050818103600083015261101a81610df4565b9050919050565b600060e0820190506110366000830185610e17565b6110436060830184610e59565b9392505050565b600060808201905061105f6000830184610e59565b92915050565b600060208201905061107a6000830184610ebd565b92915050565b600081905092915050565b600082825260208201905092915050565b60006110a7826110ae565b9050919050565b600073ffffffffffffffffffffffffffffffffffffffff82169050919050565b6000819050919050565b7f436f6e747261637420736f6c6420616e6420626f75676874206e6f742074686560008201527f2073616d65000000000000000000000000000000000000000000000000000000602082015250565b7f53656c6c20707269636520646f65736e2774206d61746368206275792070726960008201527f6365000000000000000000000000000000000000000000000000000000000000602082015250565b7f5061796d656e74204661696c656420746f2073656c6c65722061646472657373600082015250565b7f4f776e6572206f6620636f6e7472616374206973206e6f7420657363726f772060008201527f6163636f756e7400000000000000000000000000000000000000000000000000602082015250565b7f427579657220646964206e6f742073656e6420616e7920616d6f756e74000000600082015250565b50565b7f4f6e6c792062757965722063616e2073656520616d6f756e7400000000000000600082015250565b7f53656c6c6572206164647265737320646964206e6f74206d617463682062757960008201527f6572000000000000000000000000000000000000000000000000000000000000602082015250565b61129b8161109c565b81146112a657600080fd5b50565b6112b2816110ce565b81146112bd57600080fd5b5056fea26469706673582212201e3a27afd6b08b10049b6a293e625a8d81f1d5ffe1817f5d757eab6da661580b64736f6c63430008010033",
  "linkReferences": {},
  "deployedLinkReferences": {}
}