{
  "_format": "hh-sol-artifact-1",
  "contractName": "Escrow",
  "sourceName": "contracts/Escrow.sol",
  "abi": [
    {
      "anonymous": false,
      "inputs": [
        {
          "components": [
            {
              "internalType": "address",
              "name": "contractBeingSold",
              "type": "address"
            },
            {
              "internalType": "address",
              "name": "sellerAddress",
              "type": "address"
            },
            {
              "internalType": "uint256",
              "name": "sellPrice",
              "type": "uint256"
            },
            {
              "internalType": "address",
              "name": "buyersAddress",
              "type": "address"
            }
          ],
          "indexed": false,
          "internalType": "struct Escrow.EscrowContracts",
          "name": "canceledSeller",
          "type": "tuple"
        }
      ],
      "name": "ContractDelisted",
      "type": "event"
    },
    {
      "anonymous": false,
      "inputs": [
        {
          "components": [
            {
              "internalType": "address",
              "name": "contractBeingSold",
              "type": "address"
            },
            {
              "internalType": "address",
              "name": "sellerAddress",
              "type": "address"
            },
            {
              "internalType": "uint256",
              "name": "sellPrice",
              "type": "uint256"
            },
            {
              "internalType": "address",
              "name": "buyersAddress",
              "type": "address"
            }
          ],
          "indexed": false,
          "internalType": "struct Escrow.EscrowContracts",
          "name": "seller",
          "type": "tuple"
        }
      ],
      "name": "SellerReady",
      "type": "event"
    },
    {
      "anonymous": false,
      "inputs": [
        {
          "components": [
            {
              "internalType": "address",
              "name": "contractBeingBought",
              "type": "address"
            },
            {
              "internalType": "address",
              "name": "buyerAddress",
              "type": "address"
            },
            {
              "internalType": "uint256",
              "name": "sellPrice",
              "type": "uint256"
            }
          ],
          "indexed": false,
          "internalType": "struct Escrow.BuyersInfo",
          "name": "buyer",
          "type": "tuple"
        },
        {
          "components": [
            {
              "internalType": "address",
              "name": "contractBeingSold",
              "type": "address"
            },
            {
              "internalType": "address",
              "name": "sellerAddress",
              "type": "address"
            },
            {
              "internalType": "uint256",
              "name": "sellPrice",
              "type": "uint256"
            },
            {
              "internalType": "address",
              "name": "buyersAddress",
              "type": "address"
            }
          ],
          "indexed": false,
          "internalType": "struct Escrow.EscrowContracts",
          "name": "seller",
          "type": "tuple"
        }
      ],
      "name": "TransactionCompleted",
      "type": "event"
    },
    {
      "inputs": [
        {
          "internalType": "address",
          "name": "contractBeingBought",
          "type": "address"
        },
        {
          "internalType": "uint256",
          "name": "price",
          "type": "uint256"
        }
      ],
      "name": "buyerSendPay",
      "outputs": [],
      "stateMutability": "payable",
      "type": "function"
    },
    {
      "inputs": [
        {
          "internalType": "address",
          "name": "contractToDelist",
          "type": "address"
        }
      ],
      "name": "delist",
      "outputs": [],
      "stateMutability": "nonpayable",
      "type": "function"
    },
    {
      "inputs": [
        {
          "internalType": "address",
          "name": "",
          "type": "address"
        }
      ],
      "name": "escrowDetails",
      "outputs": [
        {
          "internalType": "address",
          "name": "contractBeingSold",
          "type": "address"
        },
        {
          "internalType": "address",
          "name": "sellerAddress",
          "type": "address"
        },
        {
          "internalType": "uint256",
          "name": "sellPrice",
          "type": "uint256"
        },
        {
          "internalType": "address",
          "name": "buyersAddress",
          "type": "address"
        }
      ],
      "stateMutability": "view",
      "type": "function"
    },
    {
      "inputs": [
        {
          "internalType": "address",
          "name": "myContract",
          "type": "address"
        }
      ],
      "name": "getSellerAmount",
      "outputs": [
        {
          "internalType": "uint256",
          "name": "",
          "type": "uint256"
        }
      ],
      "stateMutability": "view",
      "type": "function"
    },
    {
      "inputs": [
        {
          "internalType": "address",
          "name": "contractBeingSold",
          "type": "address"
        },
        {
          "internalType": "uint256",
          "name": "sellPrice",
          "type": "uint256"
        },
        {
          "internalType": "address",
          "name": "buyerAddress",
          "type": "address"
        }
      ],
      "name": "setContractDetail",
      "outputs": [],
      "stateMutability": "nonpayable",
      "type": "function"
    }
  ],
  "bytecode": "0x608060405234801561001057600080fd5b50611892806100206000396000f3fe60806040526004361061004a5760003560e01c806319d494431461004f5780631e9acdf61461006b5780636b2cc75c1461009457806378b1cf27146100bd57806390e4bba8146100fa575b600080fd5b610069600480360381019061006491906110ce565b61013a565b005b34801561007757600080fd5b50610092600480360381019061008d919061110a565b6104fc565b005b3480156100a057600080fd5b506100bb60048036038101906100b6919061107c565b6107ba565b005b3480156100c957600080fd5b506100e460048036038101906100df919061107c565b610aed565b6040516100f19190611563565b60405180910390f35b34801561010657600080fd5b50610121600480360381019061011c919061107c565b610cc6565b60405161013194939291906113ba565b60405180910390f35b600081905060003390506000821415610188576040517f08c379a000000000000000000000000000000000000000000000000000000000815260040161017f906114ff565b60405180910390fd5b600060405180606001604052808673ffffffffffffffffffffffffffffffffffffffff1681526020018373ffffffffffffffffffffffffffffffffffffffff1681526020018481525090506000806000836000015173ffffffffffffffffffffffffffffffffffffffff1673ffffffffffffffffffffffffffffffffffffffff1681526020019081526020016000206040518060800160405290816000820160009054906101000a900473ffffffffffffffffffffffffffffffffffffffff1673ffffffffffffffffffffffffffffffffffffffff1673ffffffffffffffffffffffffffffffffffffffff1681526020016001820160009054906101000a900473ffffffffffffffffffffffffffffffffffffffff1673ffffffffffffffffffffffffffffffffffffffff1673ffffffffffffffffffffffffffffffffffffffff168152602001600282015481526020016003820160009054906101000a900473ffffffffffffffffffffffffffffffffffffffff1673ffffffffffffffffffffffffffffffffffffffff1673ffffffffffffffffffffffffffffffffffffffff168152505090503073ffffffffffffffffffffffffffffffffffffffff168673ffffffffffffffffffffffffffffffffffffffff16638da5cb5b6040518163ffffffff1660e01b815260040160206040518083038186803b15801561038d57600080fd5b505afa1580156103a1573d6000803e3d6000fd5b505050506040513d601f19601f820116820180604052508101906103c591906110a5565b73ffffffffffffffffffffffffffffffffffffffff161461041b576040517f08c379a00000000000000000000000000000000000000000000000000000000081526004016104129061149f565b60405180910390fd5b3373ffffffffffffffffffffffffffffffffffffffff166000808873ffffffffffffffffffffffffffffffffffffffff1673ffffffffffffffffffffffffffffffffffffffff16815260200190815260200160002060030160009054906101000a900473ffffffffffffffffffffffffffffffffffffffff1673ffffffffffffffffffffffffffffffffffffffff16146104ea576040517f08c379a00000000000000000000000000000000000000000000000000000000081526004016104e1906113ff565b60405180910390fd5b6104f48183610d56565b505050505050565b6000339050600060405180608001604052808673ffffffffffffffffffffffffffffffffffffffff1681526020018373ffffffffffffffffffffffffffffffffffffffff1681526020018581526020018473ffffffffffffffffffffffffffffffffffffffff1681525090503073ffffffffffffffffffffffffffffffffffffffff16816000015173ffffffffffffffffffffffffffffffffffffffff16638da5cb5b6040518163ffffffff1660e01b815260040160206040518083038186803b1580156105c957600080fd5b505afa1580156105dd573d6000803e3d6000fd5b505050506040513d601f19601f8201168201806040525081019061060191906110a5565b73ffffffffffffffffffffffffffffffffffffffff1614610657576040517f08c379a000000000000000000000000000000000000000000000000000000000815260040161064e9061147f565b60405180910390fd5b80600080836000015173ffffffffffffffffffffffffffffffffffffffff1673ffffffffffffffffffffffffffffffffffffffff16815260200190815260200160002060008201518160000160006101000a81548173ffffffffffffffffffffffffffffffffffffffff021916908373ffffffffffffffffffffffffffffffffffffffff16021790555060208201518160010160006101000a81548173ffffffffffffffffffffffffffffffffffffffff021916908373ffffffffffffffffffffffffffffffffffffffff1602179055506040820151816002015560608201518160030160006101000a81548173ffffffffffffffffffffffffffffffffffffffff021916908373ffffffffffffffffffffffffffffffffffffffff1602179055509050507f7d23599541cf4a0e5876bbd3ad9cf554c5ea9b04fe00624271cc99e7dfc27a1c816040516107ab9190611548565b60405180910390a15050505050565b60008060008373ffffffffffffffffffffffffffffffffffffffff1673ffffffffffffffffffffffffffffffffffffffff1681526020019081526020016000206040518060800160405290816000820160009054906101000a900473ffffffffffffffffffffffffffffffffffffffff1673ffffffffffffffffffffffffffffffffffffffff1673ffffffffffffffffffffffffffffffffffffffff1681526020016001820160009054906101000a900473ffffffffffffffffffffffffffffffffffffffff1673ffffffffffffffffffffffffffffffffffffffff1673ffffffffffffffffffffffffffffffffffffffff168152602001600282015481526020016003820160009054906101000a900473ffffffffffffffffffffffffffffffffffffffff1673ffffffffffffffffffffffffffffffffffffffff1673ffffffffffffffffffffffffffffffffffffffff168152505090503373ffffffffffffffffffffffffffffffffffffffff16816020015173ffffffffffffffffffffffffffffffffffffffff1614610985576040517f08c379a000000000000000000000000000000000000000000000000000000000815260040161097c906114bf565b60405180910390fd5b8173ffffffffffffffffffffffffffffffffffffffff1663f2fde38b82602001516040518263ffffffff1660e01b81526004016109c2919061139f565b600060405180830381600087803b1580156109dc57600080fd5b505af11580156109f0573d6000803e3d6000fd5b505050506000808373ffffffffffffffffffffffffffffffffffffffff1673ffffffffffffffffffffffffffffffffffffffff168152602001908152602001600020600080820160006101000a81549073ffffffffffffffffffffffffffffffffffffffff02191690556001820160006101000a81549073ffffffffffffffffffffffffffffffffffffffff021916905560028201600090556003820160006101000a81549073ffffffffffffffffffffffffffffffffffffffff021916905550507f25bda0525c4c1dfec0144dcc1cb756edb0d1de7f014555d2f667115349ecd42d81604051610ae19190611548565b60405180910390a15050565b6000806000808473ffffffffffffffffffffffffffffffffffffffff1673ffffffffffffffffffffffffffffffffffffffff1681526020019081526020016000206040518060800160405290816000820160009054906101000a900473ffffffffffffffffffffffffffffffffffffffff1673ffffffffffffffffffffffffffffffffffffffff1673ffffffffffffffffffffffffffffffffffffffff1681526020016001820160009054906101000a900473ffffffffffffffffffffffffffffffffffffffff1673ffffffffffffffffffffffffffffffffffffffff1673ffffffffffffffffffffffffffffffffffffffff168152602001600282015481526020016003820160009054906101000a900473ffffffffffffffffffffffffffffffffffffffff1673ffffffffffffffffffffffffffffffffffffffff1673ffffffffffffffffffffffffffffffffffffffff168152505090503373ffffffffffffffffffffffffffffffffffffffff16816060015173ffffffffffffffffffffffffffffffffffffffff1614610cb9576040517f08c379a0000000000000000000000000000000000000000000000000000000008152600401610cb0906114df565b60405180910390fd5b8060400151915050919050565b60006020528060005260406000206000915090508060000160009054906101000a900473ffffffffffffffffffffffffffffffffffffffff16908060010160009054906101000a900473ffffffffffffffffffffffffffffffffffffffff16908060020154908060030160009054906101000a900473ffffffffffffffffffffffffffffffffffffffff16905084565b8060400151826040015114610da0576040517f08c379a0000000000000000000000000000000000000000000000000000000008152600401610d979061143f565b60405180910390fd5b806000015173ffffffffffffffffffffffffffffffffffffffff16826000015173ffffffffffffffffffffffffffffffffffffffff1614610e16576040517f08c379a0000000000000000000000000000000000000000000000000000000008152600401610e0d9061141f565b60405180910390fd5b6000826020015173ffffffffffffffffffffffffffffffffffffffff168260400151604051610e449061138a565b60006040518083038185875af1925050503d8060008114610e81576040519150601f19603f3d011682016040523d82523d6000602084013e610e86565b606091505b5050905080610eca576040517f08c379a0000000000000000000000000000000000000000000000000000000008152600401610ec19061145f565b60405180910390fd5b826000015173ffffffffffffffffffffffffffffffffffffffff1663f2fde38b83602001516040518263ffffffff1660e01b8152600401610f0b919061139f565b600060405180830381600087803b158015610f2557600080fd5b505af1158015610f39573d6000803e3d6000fd5b505050507f05d2c34b032f3aa7b67bd9467b3e53f718af5ef3c7f41a372b0d88c3caa240b08284604051610f6e92919061151f565b60405180910390a1600080846000015173ffffffffffffffffffffffffffffffffffffffff1673ffffffffffffffffffffffffffffffffffffffff168152602001908152602001600020600080820160006101000a81549073ffffffffffffffffffffffffffffffffffffffff02191690556001820160006101000a81549073ffffffffffffffffffffffffffffffffffffffff021916905560028201600090556003820160006101000a81549073ffffffffffffffffffffffffffffffffffffffff02191690555050505050565b60008135905061104c8161182e565b92915050565b6000815190506110618161182e565b92915050565b60008135905061107681611845565b92915050565b60006020828403121561108e57600080fd5b600061109c8482850161103d565b91505092915050565b6000602082840312156110b757600080fd5b60006110c584828501611052565b91505092915050565b600080604083850312156110e157600080fd5b60006110ef8582860161103d565b925050602061110085828601611067565b9150509250929050565b60008060006060848603121561111f57600080fd5b600061112d8682870161103d565b935050602061113e86828701611067565b925050604061114f8682870161103d565b9150509250925092565b6111628161159a565b82525050565b6111718161159a565b82525050565b6000611184602283611589565b915061118f826115d6565b604082019050919050565b60006111a7602583611589565b91506111b282611625565b604082019050919050565b60006111ca602283611589565b91506111d582611674565b604082019050919050565b60006111ed602883611589565b91506111f8826116c3565b604082019050919050565b6000611210603683611589565b915061121b82611712565b604082019050919050565b6000611233603283611589565b915061123e82611761565b604082019050919050565b6000611256601683611589565b9150611261826117b0565b602082019050919050565b6000611279601c83611589565b9150611284826117d9565b602082019050919050565b600061129c601e83611589565b91506112a782611802565b602082019050919050565b60006112bf60008361157e565b91506112ca8261182b565b600082019050919050565b6060820160008201516112eb6000850182611159565b5060208201516112fe6020850182611159565b506040820151611311604085018261136c565b50505050565b60808201600082015161132d6000850182611159565b5060208201516113406020850182611159565b506040820151611353604085018261136c565b5060608201516113666060850182611159565b50505050565b611375816115cc565b82525050565b611384816115cc565b82525050565b6000611395826112b2565b9150819050919050565b60006020820190506113b46000830184611168565b92915050565b60006080820190506113cf6000830187611168565b6113dc6020830186611168565b6113e9604083018561137b565b6113f66060830184611168565b95945050505050565b6000602082019050818103600083015261141881611177565b9050919050565b600060208201905081810360008301526114388161119a565b9050919050565b60006020820190508181036000830152611458816111bd565b9050919050565b60006020820190508181036000830152611478816111e0565b9050919050565b6000602082019050818103600083015261149881611203565b9050919050565b600060208201905081810360008301526114b881611226565b9050919050565b600060208201905081810360008301526114d881611249565b9050919050565b600060208201905081810360008301526114f88161126c565b9050919050565b600060208201905081810360008301526115188161128f565b9050919050565b600060e08201905061153460008301856112d5565b6115416060830184611317565b9392505050565b600060808201905061155d6000830184611317565b92915050565b6000602082019050611578600083018461137b565b92915050565b600081905092915050565b600082825260208201905092915050565b60006115a5826115ac565b9050919050565b600073ffffffffffffffffffffffffffffffffffffffff82169050919050565b6000819050919050565b7f4275796572206164647265737320646964206e6f74206d617463682073656c6c60008201527f6572000000000000000000000000000000000000000000000000000000000000602082015250565b7f436f6e747261637420736f6c6420616e6420626f75676874206e6f742074686560008201527f2073616d65000000000000000000000000000000000000000000000000000000602082015250565b7f53656c6c20707269636520646f65736e2774206d61746368206275792070726960008201527f6365000000000000000000000000000000000000000000000000000000000000602082015250565b7f5061796d656e74206661696c656420746f2073656e6420746f2073656c6c657260008201527f2061646472657373000000000000000000000000000000000000000000000000602082015250565b7f53656c6c657220686173206e6f74207472616e7366657272656420746865206f60008201527f776e65727368697020746f2074686520657363726f7700000000000000000000602082015250565b7f53656c6c657220686173206e6f74207472616e73666572726564206f776e657260008201527f7368697020746f2074686520657363726f770000000000000000000000000000602082015250565b7f4f6e6c792073656c6c65722063616e2064656c69737400000000000000000000600082015250565b7f4f6e6c792062757965722063616e207365652074686520707269636500000000600082015250565b7f427579657220646964206e6f742073656e6420616e79207061796d656e740000600082015250565b50565b6118378161159a565b811461184257600080fd5b50565b61184e816115cc565b811461185957600080fd5b5056fea264697066735822122025ddc04be43166dec83ddb5b09e87bc008e8b7c28a3594b3acc8f910280f054e64736f6c63430008010033",
  "linkReferences": {},
  "deployedLinkReferences": {}
}