{
  "_format": "hh-sol-artifact-1",
  "contractName": "Escrow",
  "sourceName": "contracts/Escrow.sol",
  "abi": [
    {
      "inputs": [],
      "stateMutability": "nonpayable",
      "type": "constructor"
    },
    {
      "anonymous": false,
      "inputs": [
        {
          "components": [
            {
              "internalType": "address",
              "name": "contractBeingSold",
              "type": "address"
            },
            {
              "internalType": "address",
              "name": "sellerAddress",
              "type": "address"
            },
            {
              "internalType": "uint256",
              "name": "sellPrice",
              "type": "uint256"
            },
            {
              "internalType": "address",
              "name": "buyersAddress",
              "type": "address"
            }
          ],
          "indexed": false,
          "internalType": "struct Escrow.EscrowContracts",
          "name": "seller",
          "type": "tuple"
        }
      ],
      "name": "SellerReady",
      "type": "event"
    },
    {
      "anonymous": false,
      "inputs": [
        {
          "components": [
            {
              "internalType": "address",
              "name": "contractBeingBought",
              "type": "address"
            },
            {
              "internalType": "address",
              "name": "buyerAddress",
              "type": "address"
            },
            {
              "internalType": "uint256",
              "name": "sellPrice",
              "type": "uint256"
            }
          ],
          "indexed": false,
          "internalType": "struct Escrow.BuyersInfo",
          "name": "buyer",
          "type": "tuple"
        },
        {
          "components": [
            {
              "internalType": "address",
              "name": "contractBeingSold",
              "type": "address"
            },
            {
              "internalType": "address",
              "name": "sellerAddress",
              "type": "address"
            },
            {
              "internalType": "uint256",
              "name": "sellPrice",
              "type": "uint256"
            },
            {
              "internalType": "address",
              "name": "buyersAddress",
              "type": "address"
            }
          ],
          "indexed": false,
          "internalType": "struct Escrow.EscrowContracts",
          "name": "seller",
          "type": "tuple"
        }
      ],
      "name": "TransactionCompleted",
      "type": "event"
    },
    {
      "inputs": [
        {
          "internalType": "address",
          "name": "contractBeingBought",
          "type": "address"
        },
        {
          "internalType": "uint256",
          "name": "pricePaid",
          "type": "uint256"
        }
      ],
      "name": "buyerSendPay",
      "outputs": [],
      "stateMutability": "payable",
      "type": "function"
    },
    {
      "inputs": [
        {
          "internalType": "address",
          "name": "",
          "type": "address"
        }
      ],
      "name": "escrowDetails",
      "outputs": [
        {
          "internalType": "address",
          "name": "contractBeingSold",
          "type": "address"
        },
        {
          "internalType": "address",
          "name": "sellerAddress",
          "type": "address"
        },
        {
          "internalType": "uint256",
          "name": "sellPrice",
          "type": "uint256"
        },
        {
          "internalType": "address",
          "name": "buyersAddress",
          "type": "address"
        }
      ],
      "stateMutability": "view",
      "type": "function"
    },
    {
      "inputs": [
        {
          "internalType": "address",
          "name": "myContract",
          "type": "address"
        }
      ],
      "name": "getSellerAmount",
      "outputs": [
        {
          "internalType": "uint256",
          "name": "",
          "type": "uint256"
        }
      ],
      "stateMutability": "view",
      "type": "function"
    },
    {
      "inputs": [
        {
          "internalType": "address",
          "name": "contractBeingSold",
          "type": "address"
        },
        {
          "internalType": "uint256",
          "name": "sellPrice",
          "type": "uint256"
        },
        {
          "internalType": "address",
          "name": "buyerAddress",
          "type": "address"
        }
      ],
      "name": "setContractDetail",
      "outputs": [],
      "stateMutability": "nonpayable",
      "type": "function"
    }
  ],
  "bytecode": "0x608060405234801561001057600080fd5b50336000806101000a81548173ffffffffffffffffffffffffffffffffffffffff021916908373ffffffffffffffffffffffffffffffffffffffff1602179055506114b0806100606000396000f3fe60806040526004361061003f5760003560e01c806319d49443146100445780631e9acdf61461006057806378b1cf271461008957806390e4bba8146100c6575b600080fd5b61005e60048036038101906100599190610d7e565b610106565b005b34801561006c57600080fd5b5061008760048036038101906100829190610dba565b6104ca565b005b34801561009557600080fd5b506100b060048036038101906100ab9190610d2c565b610546565b6040516100bd91906111d0565b60405180910390f35b3480156100d257600080fd5b506100ed60048036038101906100e89190610d2c565b610720565b6040516100fd9493929190611047565b60405180910390f35b600081905060003390506000821415610154576040517f08c379a000000000000000000000000000000000000000000000000000000000815260040161014b9061112c565b60405180910390fd5b600060405180606001604052808673ffffffffffffffffffffffffffffffffffffffff1681526020018373ffffffffffffffffffffffffffffffffffffffff168152602001848152509050600060016000836000015173ffffffffffffffffffffffffffffffffffffffff1673ffffffffffffffffffffffffffffffffffffffff1681526020019081526020016000206040518060800160405290816000820160009054906101000a900473ffffffffffffffffffffffffffffffffffffffff1673ffffffffffffffffffffffffffffffffffffffff1673ffffffffffffffffffffffffffffffffffffffff1681526020016001820160009054906101000a900473ffffffffffffffffffffffffffffffffffffffff1673ffffffffffffffffffffffffffffffffffffffff1673ffffffffffffffffffffffffffffffffffffffff168152602001600282015481526020016003820160009054906101000a900473ffffffffffffffffffffffffffffffffffffffff1673ffffffffffffffffffffffffffffffffffffffff1673ffffffffffffffffffffffffffffffffffffffff168152505090503073ffffffffffffffffffffffffffffffffffffffff168673ffffffffffffffffffffffffffffffffffffffff16638da5cb5b6040518163ffffffff1660e01b815260040160206040518083038186803b15801561035a57600080fd5b505afa15801561036e573d6000803e3d6000fd5b505050506040513d601f19601f820116820180604052508101906103929190610d55565b73ffffffffffffffffffffffffffffffffffffffff16146103e8576040517f08c379a00000000000000000000000000000000000000000000000000000000081526004016103df906110ec565b60405180910390fd5b3373ffffffffffffffffffffffffffffffffffffffff16600160008873ffffffffffffffffffffffffffffffffffffffff1673ffffffffffffffffffffffffffffffffffffffff16815260200190815260200160002060030160009054906101000a900473ffffffffffffffffffffffffffffffffffffffff1673ffffffffffffffffffffffffffffffffffffffff16146104b8576040517f08c379a00000000000000000000000000000000000000000000000000000000081526004016104af9061116c565b60405180910390fd5b6104c281836107b0565b505050505050565b6000339050600060405180608001604052808673ffffffffffffffffffffffffffffffffffffffff1681526020018373ffffffffffffffffffffffffffffffffffffffff1681526020018581526020018473ffffffffffffffffffffffffffffffffffffffff16815250905061053f81610a98565b5050505050565b600080600160008473ffffffffffffffffffffffffffffffffffffffff1673ffffffffffffffffffffffffffffffffffffffff1681526020019081526020016000206040518060800160405290816000820160009054906101000a900473ffffffffffffffffffffffffffffffffffffffff1673ffffffffffffffffffffffffffffffffffffffff1673ffffffffffffffffffffffffffffffffffffffff1681526020016001820160009054906101000a900473ffffffffffffffffffffffffffffffffffffffff1673ffffffffffffffffffffffffffffffffffffffff1673ffffffffffffffffffffffffffffffffffffffff168152602001600282015481526020016003820160009054906101000a900473ffffffffffffffffffffffffffffffffffffffff1673ffffffffffffffffffffffffffffffffffffffff1673ffffffffffffffffffffffffffffffffffffffff168152505090503373ffffffffffffffffffffffffffffffffffffffff16816060015173ffffffffffffffffffffffffffffffffffffffff1614610713576040517f08c379a000000000000000000000000000000000000000000000000000000000815260040161070a9061114c565b60405180910390fd5b8060400151915050919050565b60016020528060005260406000206000915090508060000160009054906101000a900473ffffffffffffffffffffffffffffffffffffffff16908060010160009054906101000a900473ffffffffffffffffffffffffffffffffffffffff16908060020154908060030160009054906101000a900473ffffffffffffffffffffffffffffffffffffffff16905084565b80604001518260400151146107fa576040517f08c379a00000000000000000000000000000000000000000000000000000000081526004016107f1906110ac565b60405180910390fd5b806000015173ffffffffffffffffffffffffffffffffffffffff16826000015173ffffffffffffffffffffffffffffffffffffffff1614610870576040517f08c379a00000000000000000000000000000000000000000000000000000000081526004016108679061108c565b60405180910390fd5b6000826020015173ffffffffffffffffffffffffffffffffffffffff16826040015160405161089e90611017565b60006040518083038185875af1925050503d80600081146108db576040519150601f19603f3d011682016040523d82523d6000602084013e6108e0565b606091505b5050905080610924576040517f08c379a000000000000000000000000000000000000000000000000000000000815260040161091b906110cc565b60405180910390fd5b826000015173ffffffffffffffffffffffffffffffffffffffff1663f2fde38b83602001516040518263ffffffff1660e01b8152600401610965919061102c565b600060405180830381600087803b15801561097f57600080fd5b505af1158015610993573d6000803e3d6000fd5b505050507f05d2c34b032f3aa7b67bd9467b3e53f718af5ef3c7f41a372b0d88c3caa240b082846040516109c892919061118c565b60405180910390a160016000846000015173ffffffffffffffffffffffffffffffffffffffff1673ffffffffffffffffffffffffffffffffffffffff168152602001908152602001600020600080820160006101000a81549073ffffffffffffffffffffffffffffffffffffffff02191690556001820160006101000a81549073ffffffffffffffffffffffffffffffffffffffff021916905560028201600090556003820160006101000a81549073ffffffffffffffffffffffffffffffffffffffff02191690555050505050565b6000816000015173ffffffffffffffffffffffffffffffffffffffff16638da5cb5b6040518163ffffffff1660e01b815260040160206040518083038186803b158015610ae457600080fd5b505afa158015610af8573d6000803e3d6000fd5b505050506040513d601f19601f82011682018060405250810190610b1c9190610d55565b90503073ffffffffffffffffffffffffffffffffffffffff168173ffffffffffffffffffffffffffffffffffffffff1614610b8c576040517f08c379a0000000000000000000000000000000000000000000000000000000008152600401610b839061110c565b60405180910390fd5b8160016000846000015173ffffffffffffffffffffffffffffffffffffffff1673ffffffffffffffffffffffffffffffffffffffff16815260200190815260200160002060008201518160000160006101000a81548173ffffffffffffffffffffffffffffffffffffffff021916908373ffffffffffffffffffffffffffffffffffffffff16021790555060208201518160010160006101000a81548173ffffffffffffffffffffffffffffffffffffffff021916908373ffffffffffffffffffffffffffffffffffffffff1602179055506040820151816002015560608201518160030160006101000a81548173ffffffffffffffffffffffffffffffffffffffff021916908373ffffffffffffffffffffffffffffffffffffffff1602179055509050507f7d23599541cf4a0e5876bbd3ad9cf554c5ea9b04fe00624271cc99e7dfc27a1c82604051610ce191906111b5565b60405180910390a15050565b600081359050610cfc8161144c565b92915050565b600081519050610d118161144c565b92915050565b600081359050610d2681611463565b92915050565b600060208284031215610d3e57600080fd5b6000610d4c84828501610ced565b91505092915050565b600060208284031215610d6757600080fd5b6000610d7584828501610d02565b91505092915050565b60008060408385031215610d9157600080fd5b6000610d9f85828601610ced565b9250506020610db085828601610d17565b9150509250929050565b600080600060608486031215610dcf57600080fd5b6000610ddd86828701610ced565b9350506020610dee86828701610d17565b9250506040610dff86828701610ced565b9150509250925092565b610e1281611207565b82525050565b610e2181611207565b82525050565b6000610e346025836111f6565b9150610e3f82611243565b604082019050919050565b6000610e576022836111f6565b9150610e6282611292565b604082019050919050565b6000610e7a6020836111f6565b9150610e85826112e1565b602082019050919050565b6000610e9d6032836111f6565b9150610ea88261130a565b604082019050919050565b6000610ec06027836111f6565b9150610ecb82611359565b604082019050919050565b6000610ee3601d836111f6565b9150610eee826113a8565b602082019050919050565b6000610f066000836111eb565b9150610f11826113d1565b600082019050919050565b6000610f296019836111f6565b9150610f34826113d4565b602082019050919050565b6000610f4c6022836111f6565b9150610f57826113fd565b604082019050919050565b606082016000820151610f786000850182610e09565b506020820151610f8b6020850182610e09565b506040820151610f9e6040850182610ff9565b50505050565b608082016000820151610fba6000850182610e09565b506020820151610fcd6020850182610e09565b506040820151610fe06040850182610ff9565b506060820151610ff36060850182610e09565b50505050565b61100281611239565b82525050565b61101181611239565b82525050565b600061102282610ef9565b9150819050919050565b60006020820190506110416000830184610e18565b92915050565b600060808201905061105c6000830187610e18565b6110696020830186610e18565b6110766040830185611008565b6110836060830184610e18565b95945050505050565b600060208201905081810360008301526110a581610e27565b9050919050565b600060208201905081810360008301526110c581610e4a565b9050919050565b600060208201905081810360008301526110e581610e6d565b9050919050565b6000602082019050818103600083015261110581610e90565b9050919050565b6000602082019050818103600083015261112581610eb3565b9050919050565b6000602082019050818103600083015261114581610ed6565b9050919050565b6000602082019050818103600083015261116581610f1c565b9050919050565b6000602082019050818103600083015261118581610f3f565b9050919050565b600060e0820190506111a16000830185610f62565b6111ae6060830184610fa4565b9392505050565b60006080820190506111ca6000830184610fa4565b92915050565b60006020820190506111e56000830184611008565b92915050565b600081905092915050565b600082825260208201905092915050565b600061121282611219565b9050919050565b600073ffffffffffffffffffffffffffffffffffffffff82169050919050565b6000819050919050565b7f436f6e747261637420736f6c6420616e6420626f75676874206e6f742074686560008201527f2073616d65000000000000000000000000000000000000000000000000000000602082015250565b7f53656c6c20707269636520646f65736e2774206d61746368206275792070726960008201527f6365000000000000000000000000000000000000000000000000000000000000602082015250565b7f5061796d656e74204661696c656420746f2073656c6c65722061646472657373600082015250565b7f53656c6c657220686173206e6f74207472616e73666572726564206f776e657260008201527f7368697020746f2074686520657363726f770000000000000000000000000000602082015250565b7f4f776e6572206f6620636f6e7472616374206973206e6f7420657363726f772060008201527f6163636f756e7400000000000000000000000000000000000000000000000000602082015250565b7f427579657220646964206e6f742073656e6420616e7920616d6f756e74000000600082015250565b50565b7f4f6e6c792062757965722063616e2073656520616d6f756e7400000000000000600082015250565b7f53656c6c6572206164647265737320646964206e6f74206d617463682062757960008201527f6572000000000000000000000000000000000000000000000000000000000000602082015250565b61145581611207565b811461146057600080fd5b50565b61146c81611239565b811461147757600080fd5b5056fea2646970667358221220d2100847e8303e2e66a9b66797dfb0f126f425f36ed269ba94354b601055057b64736f6c63430008010033",
  "linkReferences": {},
  "deployedLinkReferences": {}
}