{
  "_format": "hh-sol-artifact-1",
  "contractName": "Escrow",
  "sourceName": "contracts/Escrow.sol",
  "abi": [
    {
      "anonymous": false,
      "inputs": [
        {
          "components": [
            {
              "internalType": "address",
              "name": "contractBeingSold",
              "type": "address"
            },
            {
              "internalType": "address",
              "name": "sellerAddress",
              "type": "address"
            },
            {
              "internalType": "uint256",
              "name": "sellPrice",
              "type": "uint256"
            },
            {
              "internalType": "address",
              "name": "buyersAddress",
              "type": "address"
            }
          ],
          "indexed": false,
          "internalType": "struct Escrow.EscrowContracts",
          "name": "seller",
          "type": "tuple"
        }
      ],
      "name": "SellerReady",
      "type": "event"
    },
    {
      "anonymous": false,
      "inputs": [
        {
          "components": [
            {
              "internalType": "address",
              "name": "contractBeingBought",
              "type": "address"
            },
            {
              "internalType": "address",
              "name": "buyerAddress",
              "type": "address"
            },
            {
              "internalType": "uint256",
              "name": "sellPrice",
              "type": "uint256"
            }
          ],
          "indexed": false,
          "internalType": "struct Escrow.BuyersInfo",
          "name": "buyer",
          "type": "tuple"
        },
        {
          "components": [
            {
              "internalType": "address",
              "name": "contractBeingSold",
              "type": "address"
            },
            {
              "internalType": "address",
              "name": "sellerAddress",
              "type": "address"
            },
            {
              "internalType": "uint256",
              "name": "sellPrice",
              "type": "uint256"
            },
            {
              "internalType": "address",
              "name": "buyersAddress",
              "type": "address"
            }
          ],
          "indexed": false,
          "internalType": "struct Escrow.EscrowContracts",
          "name": "seller",
          "type": "tuple"
        }
      ],
      "name": "TransactionCompleted",
      "type": "event"
    },
    {
      "inputs": [
        {
          "internalType": "address",
          "name": "contractBeingBought",
          "type": "address"
        },
        {
          "internalType": "uint256",
          "name": "price",
          "type": "uint256"
        }
      ],
      "name": "buyerSendPay",
      "outputs": [],
      "stateMutability": "payable",
      "type": "function"
    },
    {
      "inputs": [
        {
          "internalType": "address",
          "name": "",
          "type": "address"
        }
      ],
      "name": "escrowDetails",
      "outputs": [
        {
          "internalType": "address",
          "name": "contractBeingSold",
          "type": "address"
        },
        {
          "internalType": "address",
          "name": "sellerAddress",
          "type": "address"
        },
        {
          "internalType": "uint256",
          "name": "sellPrice",
          "type": "uint256"
        },
        {
          "internalType": "address",
          "name": "buyersAddress",
          "type": "address"
        }
      ],
      "stateMutability": "view",
      "type": "function"
    },
    {
      "inputs": [
        {
          "internalType": "address",
          "name": "myContract",
          "type": "address"
        }
      ],
      "name": "getSellerAmount",
      "outputs": [
        {
          "internalType": "uint256",
          "name": "",
          "type": "uint256"
        }
      ],
      "stateMutability": "view",
      "type": "function"
    },
    {
      "inputs": [
        {
          "internalType": "address",
          "name": "contractBeingSold",
          "type": "address"
        },
        {
          "internalType": "uint256",
          "name": "sellPrice",
          "type": "uint256"
        },
        {
          "internalType": "address",
          "name": "buyerAddress",
          "type": "address"
        }
      ],
      "name": "setContractDetail",
      "outputs": [],
      "stateMutability": "nonpayable",
      "type": "function"
    }
  ],
  "bytecode": "0x608060405234801561001057600080fd5b506114bf806100206000396000f3fe60806040526004361061003f5760003560e01c806319d49443146100445780631e9acdf61461006057806378b1cf271461008957806390e4bba8146100c6575b600080fd5b61005e60048036038101906100599190610d67565b610106565b005b34801561006c57600080fd5b5061008760048036038101906100829190610da3565b6104c8565b005b34801561009557600080fd5b506100b060048036038101906100ab9190610d15565b610786565b6040516100bd91906111b9565b60405180910390f35b3480156100d257600080fd5b506100ed60048036038101906100e89190610d15565b61095f565b6040516100fd9493929190611030565b60405180910390f35b600081905060003390506000821415610154576040517f08c379a000000000000000000000000000000000000000000000000000000000815260040161014b90611155565b60405180910390fd5b600060405180606001604052808673ffffffffffffffffffffffffffffffffffffffff1681526020018373ffffffffffffffffffffffffffffffffffffffff1681526020018481525090506000806000836000015173ffffffffffffffffffffffffffffffffffffffff1673ffffffffffffffffffffffffffffffffffffffff1681526020019081526020016000206040518060800160405290816000820160009054906101000a900473ffffffffffffffffffffffffffffffffffffffff1673ffffffffffffffffffffffffffffffffffffffff1673ffffffffffffffffffffffffffffffffffffffff1681526020016001820160009054906101000a900473ffffffffffffffffffffffffffffffffffffffff1673ffffffffffffffffffffffffffffffffffffffff1673ffffffffffffffffffffffffffffffffffffffff168152602001600282015481526020016003820160009054906101000a900473ffffffffffffffffffffffffffffffffffffffff1673ffffffffffffffffffffffffffffffffffffffff1673ffffffffffffffffffffffffffffffffffffffff168152505090503073ffffffffffffffffffffffffffffffffffffffff168673ffffffffffffffffffffffffffffffffffffffff16638da5cb5b6040518163ffffffff1660e01b815260040160206040518083038186803b15801561035957600080fd5b505afa15801561036d573d6000803e3d6000fd5b505050506040513d601f19601f820116820180604052508101906103919190610d3e565b73ffffffffffffffffffffffffffffffffffffffff16146103e7576040517f08c379a00000000000000000000000000000000000000000000000000000000081526004016103de90611115565b60405180910390fd5b3373ffffffffffffffffffffffffffffffffffffffff166000808873ffffffffffffffffffffffffffffffffffffffff1673ffffffffffffffffffffffffffffffffffffffff16815260200190815260200160002060030160009054906101000a900473ffffffffffffffffffffffffffffffffffffffff1673ffffffffffffffffffffffffffffffffffffffff16146104b6576040517f08c379a00000000000000000000000000000000000000000000000000000000081526004016104ad90611075565b60405180910390fd5b6104c081836109ef565b505050505050565b6000339050600060405180608001604052808673ffffffffffffffffffffffffffffffffffffffff1681526020018373ffffffffffffffffffffffffffffffffffffffff1681526020018581526020018473ffffffffffffffffffffffffffffffffffffffff1681525090503073ffffffffffffffffffffffffffffffffffffffff16816000015173ffffffffffffffffffffffffffffffffffffffff16638da5cb5b6040518163ffffffff1660e01b815260040160206040518083038186803b15801561059557600080fd5b505afa1580156105a9573d6000803e3d6000fd5b505050506040513d601f19601f820116820180604052508101906105cd9190610d3e565b73ffffffffffffffffffffffffffffffffffffffff1614610623576040517f08c379a000000000000000000000000000000000000000000000000000000000815260040161061a906110f5565b60405180910390fd5b80600080836000015173ffffffffffffffffffffffffffffffffffffffff1673ffffffffffffffffffffffffffffffffffffffff16815260200190815260200160002060008201518160000160006101000a81548173ffffffffffffffffffffffffffffffffffffffff021916908373ffffffffffffffffffffffffffffffffffffffff16021790555060208201518160010160006101000a81548173ffffffffffffffffffffffffffffffffffffffff021916908373ffffffffffffffffffffffffffffffffffffffff1602179055506040820151816002015560608201518160030160006101000a81548173ffffffffffffffffffffffffffffffffffffffff021916908373ffffffffffffffffffffffffffffffffffffffff1602179055509050507f7d23599541cf4a0e5876bbd3ad9cf554c5ea9b04fe00624271cc99e7dfc27a1c81604051610777919061119e565b60405180910390a15050505050565b6000806000808473ffffffffffffffffffffffffffffffffffffffff1673ffffffffffffffffffffffffffffffffffffffff1681526020019081526020016000206040518060800160405290816000820160009054906101000a900473ffffffffffffffffffffffffffffffffffffffff1673ffffffffffffffffffffffffffffffffffffffff1673ffffffffffffffffffffffffffffffffffffffff1681526020016001820160009054906101000a900473ffffffffffffffffffffffffffffffffffffffff1673ffffffffffffffffffffffffffffffffffffffff1673ffffffffffffffffffffffffffffffffffffffff168152602001600282015481526020016003820160009054906101000a900473ffffffffffffffffffffffffffffffffffffffff1673ffffffffffffffffffffffffffffffffffffffff1673ffffffffffffffffffffffffffffffffffffffff168152505090503373ffffffffffffffffffffffffffffffffffffffff16816060015173ffffffffffffffffffffffffffffffffffffffff1614610952576040517f08c379a000000000000000000000000000000000000000000000000000000000815260040161094990611135565b60405180910390fd5b8060400151915050919050565b60006020528060005260406000206000915090508060000160009054906101000a900473ffffffffffffffffffffffffffffffffffffffff16908060010160009054906101000a900473ffffffffffffffffffffffffffffffffffffffff16908060020154908060030160009054906101000a900473ffffffffffffffffffffffffffffffffffffffff16905084565b8060400151826040015114610a39576040517f08c379a0000000000000000000000000000000000000000000000000000000008152600401610a30906110b5565b60405180910390fd5b806000015173ffffffffffffffffffffffffffffffffffffffff16826000015173ffffffffffffffffffffffffffffffffffffffff1614610aaf576040517f08c379a0000000000000000000000000000000000000000000000000000000008152600401610aa690611095565b60405180910390fd5b6000826020015173ffffffffffffffffffffffffffffffffffffffff168260400151604051610add90611000565b60006040518083038185875af1925050503d8060008114610b1a576040519150601f19603f3d011682016040523d82523d6000602084013e610b1f565b606091505b5050905080610b63576040517f08c379a0000000000000000000000000000000000000000000000000000000008152600401610b5a906110d5565b60405180910390fd5b826000015173ffffffffffffffffffffffffffffffffffffffff1663f2fde38b83602001516040518263ffffffff1660e01b8152600401610ba49190611015565b600060405180830381600087803b158015610bbe57600080fd5b505af1158015610bd2573d6000803e3d6000fd5b505050507f05d2c34b032f3aa7b67bd9467b3e53f718af5ef3c7f41a372b0d88c3caa240b08284604051610c07929190611175565b60405180910390a1600080846000015173ffffffffffffffffffffffffffffffffffffffff1673ffffffffffffffffffffffffffffffffffffffff168152602001908152602001600020600080820160006101000a81549073ffffffffffffffffffffffffffffffffffffffff02191690556001820160006101000a81549073ffffffffffffffffffffffffffffffffffffffff021916905560028201600090556003820160006101000a81549073ffffffffffffffffffffffffffffffffffffffff02191690555050505050565b600081359050610ce58161145b565b92915050565b600081519050610cfa8161145b565b92915050565b600081359050610d0f81611472565b92915050565b600060208284031215610d2757600080fd5b6000610d3584828501610cd6565b91505092915050565b600060208284031215610d5057600080fd5b6000610d5e84828501610ceb565b91505092915050565b60008060408385031215610d7a57600080fd5b6000610d8885828601610cd6565b9250506020610d9985828601610d00565b9150509250929050565b600080600060608486031215610db857600080fd5b6000610dc686828701610cd6565b9350506020610dd786828701610d00565b9250506040610de886828701610cd6565b9150509250925092565b610dfb816111f0565b82525050565b610e0a816111f0565b82525050565b6000610e1d6022836111df565b9150610e288261122c565b604082019050919050565b6000610e406025836111df565b9150610e4b8261127b565b604082019050919050565b6000610e636022836111df565b9150610e6e826112ca565b604082019050919050565b6000610e866028836111df565b9150610e9182611319565b604082019050919050565b6000610ea96036836111df565b9150610eb482611368565b604082019050919050565b6000610ecc6032836111df565b9150610ed7826113b7565b604082019050919050565b6000610eef601c836111df565b9150610efa82611406565b602082019050919050565b6000610f12601e836111df565b9150610f1d8261142f565b602082019050919050565b6000610f356000836111d4565b9150610f4082611458565b600082019050919050565b606082016000820151610f616000850182610df2565b506020820151610f746020850182610df2565b506040820151610f876040850182610fe2565b50505050565b608082016000820151610fa36000850182610df2565b506020820151610fb66020850182610df2565b506040820151610fc96040850182610fe2565b506060820151610fdc6060850182610df2565b50505050565b610feb81611222565b82525050565b610ffa81611222565b82525050565b600061100b82610f28565b9150819050919050565b600060208201905061102a6000830184610e01565b92915050565b60006080820190506110456000830187610e01565b6110526020830186610e01565b61105f6040830185610ff1565b61106c6060830184610e01565b95945050505050565b6000602082019050818103600083015261108e81610e10565b9050919050565b600060208201905081810360008301526110ae81610e33565b9050919050565b600060208201905081810360008301526110ce81610e56565b9050919050565b600060208201905081810360008301526110ee81610e79565b9050919050565b6000602082019050818103600083015261110e81610e9c565b9050919050565b6000602082019050818103600083015261112e81610ebf565b9050919050565b6000602082019050818103600083015261114e81610ee2565b9050919050565b6000602082019050818103600083015261116e81610f05565b9050919050565b600060e08201905061118a6000830185610f4b565b6111976060830184610f8d565b9392505050565b60006080820190506111b36000830184610f8d565b92915050565b60006020820190506111ce6000830184610ff1565b92915050565b600081905092915050565b600082825260208201905092915050565b60006111fb82611202565b9050919050565b600073ffffffffffffffffffffffffffffffffffffffff82169050919050565b6000819050919050565b7f4275796572206164647265737320646964206e6f74206d617463682073656c6c60008201527f6572000000000000000000000000000000000000000000000000000000000000602082015250565b7f436f6e747261637420736f6c6420616e6420626f75676874206e6f742074686560008201527f2073616d65000000000000000000000000000000000000000000000000000000602082015250565b7f53656c6c20707269636520646f65736e2774206d61746368206275792070726960008201527f6365000000000000000000000000000000000000000000000000000000000000602082015250565b7f5061796d656e74206661696c656420746f2073656e6420746f2073656c6c657260008201527f2061646472657373000000000000000000000000000000000000000000000000602082015250565b7f53656c6c657220686173206e6f74207472616e7366657272656420746865206f60008201527f776e65727368697020746f2074686520657363726f7700000000000000000000602082015250565b7f53656c6c657220686173206e6f74207472616e73666572726564206f776e657260008201527f7368697020746f2074686520657363726f770000000000000000000000000000602082015250565b7f4f6e6c792062757965722063616e207365652074686520707269636500000000600082015250565b7f427579657220646964206e6f742073656e6420616e79207061796d656e740000600082015250565b50565b611464816111f0565b811461146f57600080fd5b50565b61147b81611222565b811461148657600080fd5b5056fea2646970667358221220e53f07b5c59e994aed526e1ac82cba7a8d4aebac311a66399bf09d18a366bd5864736f6c63430008010033",
  "linkReferences": {},
  "deployedLinkReferences": {}
}