{
  "_format": "hh-sol-artifact-1",
  "contractName": "Escrow",
  "sourceName": "contracts/Escrow.sol",
  "abi": [
    {
      "inputs": [],
      "stateMutability": "nonpayable",
      "type": "constructor"
    },
    {
      "anonymous": false,
      "inputs": [
        {
          "components": [
            {
              "internalType": "address",
              "name": "contractBeingSold",
              "type": "address"
            },
            {
              "internalType": "address",
              "name": "sellerAddress",
              "type": "address"
            },
            {
              "internalType": "uint256",
              "name": "sellPrice",
              "type": "uint256"
            },
            {
              "internalType": "address",
              "name": "buyersAddress",
              "type": "address"
            }
          ],
          "indexed": false,
          "internalType": "struct Escrow.EscrowContracts",
          "name": "seller",
          "type": "tuple"
        }
      ],
      "name": "SellerReady",
      "type": "event"
    },
    {
      "anonymous": false,
      "inputs": [
        {
          "components": [
            {
              "internalType": "address",
              "name": "contractBeingBought",
              "type": "address"
            },
            {
              "internalType": "address",
              "name": "buyerAddress",
              "type": "address"
            },
            {
              "internalType": "uint256",
              "name": "sellPrice",
              "type": "uint256"
            }
          ],
          "indexed": false,
          "internalType": "struct Escrow.BuyersInfo",
          "name": "buyer",
          "type": "tuple"
        },
        {
          "components": [
            {
              "internalType": "address",
              "name": "contractBeingSold",
              "type": "address"
            },
            {
              "internalType": "address",
              "name": "sellerAddress",
              "type": "address"
            },
            {
              "internalType": "uint256",
              "name": "sellPrice",
              "type": "uint256"
            },
            {
              "internalType": "address",
              "name": "buyersAddress",
              "type": "address"
            }
          ],
          "indexed": false,
          "internalType": "struct Escrow.EscrowContracts",
          "name": "seller",
          "type": "tuple"
        }
      ],
      "name": "TransactionCompleted",
      "type": "event"
    },
    {
      "inputs": [
        {
          "internalType": "address",
          "name": "contractBeingBought",
          "type": "address"
        }
      ],
      "name": "buyerSendPay",
      "outputs": [],
      "stateMutability": "payable",
      "type": "function"
    },
    {
      "inputs": [
        {
          "internalType": "address",
          "name": "",
          "type": "address"
        }
      ],
      "name": "escrowDetails",
      "outputs": [
        {
          "internalType": "address",
          "name": "contractBeingSold",
          "type": "address"
        },
        {
          "internalType": "address",
          "name": "sellerAddress",
          "type": "address"
        },
        {
          "internalType": "uint256",
          "name": "sellPrice",
          "type": "uint256"
        },
        {
          "internalType": "address",
          "name": "buyersAddress",
          "type": "address"
        }
      ],
      "stateMutability": "view",
      "type": "function"
    },
    {
      "inputs": [
        {
          "internalType": "address",
          "name": "myContract",
          "type": "address"
        }
      ],
      "name": "getSellerAmount",
      "outputs": [
        {
          "internalType": "uint256",
          "name": "",
          "type": "uint256"
        }
      ],
      "stateMutability": "view",
      "type": "function"
    },
    {
      "inputs": [
        {
          "internalType": "address",
          "name": "contractBeingSold",
          "type": "address"
        },
        {
          "internalType": "uint256",
          "name": "sellPrice",
          "type": "uint256"
        },
        {
          "internalType": "address",
          "name": "buyerAddress",
          "type": "address"
        }
      ],
      "name": "setContractDetail",
      "outputs": [],
      "stateMutability": "nonpayable",
      "type": "function"
    }
  ],
  "bytecode": "0x608060405234801561001057600080fd5b50336000806101000a81548173ffffffffffffffffffffffffffffffffffffffff021916908373ffffffffffffffffffffffffffffffffffffffff1602179055506111a0806100606000396000f3fe60806040526004361061003f5760003560e01c80631e9acdf61461004457806378b1cf271461006d57806390e4bba8146100aa578063cee6a7c2146100ea575b600080fd5b34801561005057600080fd5b5061006b60048036038101906100669190610bce565b610106565b005b34801561007957600080fd5b50610094600480360381019061008f9190610ba5565b610182565b6040516100a19190610f5e565b60405180910390f35b3480156100b657600080fd5b506100d160048036038101906100cc9190610ba5565b61035c565b6040516100e19493929190610e15565b60405180910390f35b61010460048036038101906100ff9190610ba5565b6103ec565b005b6000339050600060405180608001604052808673ffffffffffffffffffffffffffffffffffffffff1681526020018373ffffffffffffffffffffffffffffffffffffffff1681526020018581526020018473ffffffffffffffffffffffffffffffffffffffff16815250905061017b816106c4565b5050505050565b600080600160008473ffffffffffffffffffffffffffffffffffffffff1673ffffffffffffffffffffffffffffffffffffffff1681526020019081526020016000206040518060800160405290816000820160009054906101000a900473ffffffffffffffffffffffffffffffffffffffff1673ffffffffffffffffffffffffffffffffffffffff1673ffffffffffffffffffffffffffffffffffffffff1681526020016001820160009054906101000a900473ffffffffffffffffffffffffffffffffffffffff1673ffffffffffffffffffffffffffffffffffffffff1673ffffffffffffffffffffffffffffffffffffffff168152602001600282015481526020016003820160009054906101000a900473ffffffffffffffffffffffffffffffffffffffff1673ffffffffffffffffffffffffffffffffffffffff1673ffffffffffffffffffffffffffffffffffffffff168152505090503373ffffffffffffffffffffffffffffffffffffffff16816060015173ffffffffffffffffffffffffffffffffffffffff161461034f576040517f08c379a000000000000000000000000000000000000000000000000000000000815260040161034690610eda565b60405180910390fd5b8060400151915050919050565b60016020528060005260406000206000915090508060000160009054906101000a900473ffffffffffffffffffffffffffffffffffffffff16908060010160009054906101000a900473ffffffffffffffffffffffffffffffffffffffff16908060020154908060030160009054906101000a900473ffffffffffffffffffffffffffffffffffffffff16905084565b60003490506000339050600082141561043a576040517f08c379a000000000000000000000000000000000000000000000000000000000815260040161043190610eba565b60405180910390fd5b600060405180606001604052808573ffffffffffffffffffffffffffffffffffffffff1681526020018373ffffffffffffffffffffffffffffffffffffffff168152602001848152509050600060016000836000015173ffffffffffffffffffffffffffffffffffffffff1673ffffffffffffffffffffffffffffffffffffffff1681526020019081526020016000206040518060800160405290816000820160009054906101000a900473ffffffffffffffffffffffffffffffffffffffff1673ffffffffffffffffffffffffffffffffffffffff1673ffffffffffffffffffffffffffffffffffffffff1681526020016001820160009054906101000a900473ffffffffffffffffffffffffffffffffffffffff1673ffffffffffffffffffffffffffffffffffffffff1673ffffffffffffffffffffffffffffffffffffffff168152602001600282015481526020016003820160009054906101000a900473ffffffffffffffffffffffffffffffffffffffff1673ffffffffffffffffffffffffffffffffffffffff1673ffffffffffffffffffffffffffffffffffffffff168152505090503373ffffffffffffffffffffffffffffffffffffffff16600160008773ffffffffffffffffffffffffffffffffffffffff1673ffffffffffffffffffffffffffffffffffffffff16815260200190815260200160002060030160009054906101000a900473ffffffffffffffffffffffffffffffffffffffff1673ffffffffffffffffffffffffffffffffffffffff16146106b3576040517f08c379a00000000000000000000000000000000000000000000000000000000081526004016106aa90610efa565b60405180910390fd5b6106bd8183610893565b5050505050565b806000015173ffffffffffffffffffffffffffffffffffffffff1663f2fde38b306040518263ffffffff1660e01b81526004016107019190610dfa565b600060405180830381600087803b15801561071b57600080fd5b505af115801561072f573d6000803e3d6000fd5b505050508060016000836000015173ffffffffffffffffffffffffffffffffffffffff1673ffffffffffffffffffffffffffffffffffffffff16815260200190815260200160002060008201518160000160006101000a81548173ffffffffffffffffffffffffffffffffffffffff021916908373ffffffffffffffffffffffffffffffffffffffff16021790555060208201518160010160006101000a81548173ffffffffffffffffffffffffffffffffffffffff021916908373ffffffffffffffffffffffffffffffffffffffff1602179055506040820151816002015560608201518160030160006101000a81548173ffffffffffffffffffffffffffffffffffffffff021916908373ffffffffffffffffffffffffffffffffffffffff1602179055509050507f7d23599541cf4a0e5876bbd3ad9cf554c5ea9b04fe00624271cc99e7dfc27a1c816040516108889190610f43565b60405180910390a150565b80604001518260400151146108dd576040517f08c379a00000000000000000000000000000000000000000000000000000000081526004016108d490610e7a565b60405180910390fd5b806000015173ffffffffffffffffffffffffffffffffffffffff16826000015173ffffffffffffffffffffffffffffffffffffffff1614610953576040517f08c379a000000000000000000000000000000000000000000000000000000000815260040161094a90610e5a565b60405180910390fd5b6000826020015173ffffffffffffffffffffffffffffffffffffffff16836040015160405161098190610de5565b60006040518083038185875af1925050503d80600081146109be576040519150601f19603f3d011682016040523d82523d6000602084013e6109c3565b606091505b5050905080610a07576040517f08c379a00000000000000000000000000000000000000000000000000000000081526004016109fe90610e9a565b60405180910390fd5b826000015173ffffffffffffffffffffffffffffffffffffffff1663f2fde38b83602001516040518263ffffffff1660e01b8152600401610a489190610dfa565b600060405180830381600087803b158015610a6257600080fd5b505af1158015610a76573d6000803e3d6000fd5b505050507f05d2c34b032f3aa7b67bd9467b3e53f718af5ef3c7f41a372b0d88c3caa240b08284604051610aab929190610f1a565b60405180910390a160016000846000015173ffffffffffffffffffffffffffffffffffffffff1673ffffffffffffffffffffffffffffffffffffffff168152602001908152602001600020600080820160006101000a81549073ffffffffffffffffffffffffffffffffffffffff02191690556001820160006101000a81549073ffffffffffffffffffffffffffffffffffffffff021916905560028201600090556003820160006101000a81549073ffffffffffffffffffffffffffffffffffffffff02191690555050505050565b600081359050610b8a8161113c565b92915050565b600081359050610b9f81611153565b92915050565b600060208284031215610bb757600080fd5b6000610bc584828501610b7b565b91505092915050565b600080600060608486031215610be357600080fd5b6000610bf186828701610b7b565b9350506020610c0286828701610b90565b9250506040610c1386828701610b7b565b9150509250925092565b610c2681610f95565b82525050565b610c3581610f95565b82525050565b6000610c48602583610f84565b9150610c5382610fd1565b604082019050919050565b6000610c6b602283610f84565b9150610c7682611020565b604082019050919050565b6000610c8e602083610f84565b9150610c998261106f565b602082019050919050565b6000610cb1601d83610f84565b9150610cbc82611098565b602082019050919050565b6000610cd4600083610f79565b9150610cdf826110c1565b600082019050919050565b6000610cf7601983610f84565b9150610d02826110c4565b602082019050919050565b6000610d1a602283610f84565b9150610d25826110ed565b604082019050919050565b606082016000820151610d466000850182610c1d565b506020820151610d596020850182610c1d565b506040820151610d6c6040850182610dc7565b50505050565b608082016000820151610d886000850182610c1d565b506020820151610d9b6020850182610c1d565b506040820151610dae6040850182610dc7565b506060820151610dc16060850182610c1d565b50505050565b610dd081610fc7565b82525050565b610ddf81610fc7565b82525050565b6000610df082610cc7565b9150819050919050565b6000602082019050610e0f6000830184610c2c565b92915050565b6000608082019050610e2a6000830187610c2c565b610e376020830186610c2c565b610e446040830185610dd6565b610e516060830184610c2c565b95945050505050565b60006020820190508181036000830152610e7381610c3b565b9050919050565b60006020820190508181036000830152610e9381610c5e565b9050919050565b60006020820190508181036000830152610eb381610c81565b9050919050565b60006020820190508181036000830152610ed381610ca4565b9050919050565b60006020820190508181036000830152610ef381610cea565b9050919050565b60006020820190508181036000830152610f1381610d0d565b9050919050565b600060e082019050610f2f6000830185610d30565b610f3c6060830184610d72565b9392505050565b6000608082019050610f586000830184610d72565b92915050565b6000602082019050610f736000830184610dd6565b92915050565b600081905092915050565b600082825260208201905092915050565b6000610fa082610fa7565b9050919050565b600073ffffffffffffffffffffffffffffffffffffffff82169050919050565b6000819050919050565b7f436f6e747261637420736f6c6420616e6420626f75676874206e6f742074686560008201527f2073616d65000000000000000000000000000000000000000000000000000000602082015250565b7f53656c6c20707269636520646f65736e2774206d61746368206275792070726960008201527f6365000000000000000000000000000000000000000000000000000000000000602082015250565b7f5061796d656e74204661696c656420746f2073656c6c65722061646472657373600082015250565b7f427579657220646964206e6f742073656e6420616e7920616d6f756e74000000600082015250565b50565b7f4f6e6c792062757965722063616e2073656520616d6f756e7400000000000000600082015250565b7f53656c6c6572206164647265737320646964206e6f74206d617463682062757960008201527f6572000000000000000000000000000000000000000000000000000000000000602082015250565b61114581610f95565b811461115057600080fd5b50565b61115c81610fc7565b811461116757600080fd5b5056fea264697066735822122034f8bc6205d9373e2f6b664b6897312f5eff6daa75b3c34984381f9916a6a53664736f6c63430008010033",
  "linkReferences": {},
  "deployedLinkReferences": {}
}