{
  "_format": "hh-sol-artifact-1",
  "contractName": "Escrow",
  "sourceName": "contracts/Escrow.sol",
  "abi": [
    {
      "inputs": [],
      "stateMutability": "nonpayable",
      "type": "constructor"
    },
    {
      "anonymous": false,
      "inputs": [
        {
          "indexed": true,
          "internalType": "address",
          "name": "previousOwner",
          "type": "address"
        },
        {
          "indexed": true,
          "internalType": "address",
          "name": "newOwner",
          "type": "address"
        }
      ],
      "name": "OwnershipTransferred",
      "type": "event"
    },
    {
      "anonymous": false,
      "inputs": [
        {
          "components": [
            {
              "internalType": "address",
              "name": "contractBeingSold",
              "type": "address"
            },
            {
              "internalType": "address",
              "name": "sellerAddress",
              "type": "address"
            },
            {
              "internalType": "uint256",
              "name": "sellPrice",
              "type": "uint256"
            },
            {
              "internalType": "address",
              "name": "buyersAddress",
              "type": "address"
            }
          ],
          "indexed": false,
          "internalType": "struct Escrow.SellersInfo",
          "name": "seller",
          "type": "tuple"
        }
      ],
      "name": "SellerReady",
      "type": "event"
    },
    {
      "anonymous": false,
      "inputs": [
        {
          "components": [
            {
              "internalType": "address",
              "name": "contractBeingBought",
              "type": "address"
            },
            {
              "internalType": "address",
              "name": "buyerAddress",
              "type": "address"
            },
            {
              "internalType": "uint256",
              "name": "sellPrice",
              "type": "uint256"
            }
          ],
          "indexed": false,
          "internalType": "struct Escrow.BuyersInfo",
          "name": "buyer",
          "type": "tuple"
        },
        {
          "components": [
            {
              "internalType": "address",
              "name": "contractBeingSold",
              "type": "address"
            },
            {
              "internalType": "address",
              "name": "sellerAddress",
              "type": "address"
            },
            {
              "internalType": "uint256",
              "name": "sellPrice",
              "type": "uint256"
            },
            {
              "internalType": "address",
              "name": "buyersAddress",
              "type": "address"
            }
          ],
          "indexed": false,
          "internalType": "struct Escrow.SellersInfo",
          "name": "seller",
          "type": "tuple"
        }
      ],
      "name": "TransactionCompleted",
      "type": "event"
    },
    {
      "inputs": [
        {
          "components": [
            {
              "internalType": "address",
              "name": "contractBeingBought",
              "type": "address"
            },
            {
              "internalType": "address",
              "name": "buyerAddress",
              "type": "address"
            },
            {
              "internalType": "uint256",
              "name": "sellPrice",
              "type": "uint256"
            }
          ],
          "internalType": "struct Escrow.BuyersInfo",
          "name": "myBuyersInfo",
          "type": "tuple"
        }
      ],
      "name": "buyerSendPay",
      "outputs": [],
      "stateMutability": "payable",
      "type": "function"
    },
    {
      "inputs": [],
      "name": "getBalance",
      "outputs": [
        {
          "internalType": "uint256",
          "name": "",
          "type": "uint256"
        }
      ],
      "stateMutability": "view",
      "type": "function"
    },
    {
      "inputs": [
        {
          "internalType": "address",
          "name": "myContract",
          "type": "address"
        }
      ],
      "name": "getSellerAmount",
      "outputs": [
        {
          "internalType": "uint256",
          "name": "",
          "type": "uint256"
        }
      ],
      "stateMutability": "view",
      "type": "function"
    },
    {
      "inputs": [],
      "name": "owner",
      "outputs": [
        {
          "internalType": "address",
          "name": "",
          "type": "address"
        }
      ],
      "stateMutability": "view",
      "type": "function"
    },
    {
      "inputs": [],
      "name": "ownerOfContract",
      "outputs": [
        {
          "internalType": "address payable",
          "name": "",
          "type": "address"
        }
      ],
      "stateMutability": "view",
      "type": "function"
    },
    {
      "inputs": [],
      "name": "renounceOwnership",
      "outputs": [],
      "stateMutability": "nonpayable",
      "type": "function"
    },
    {
      "inputs": [
        {
          "internalType": "address",
          "name": "",
          "type": "address"
        }
      ],
      "name": "sellers",
      "outputs": [
        {
          "internalType": "address",
          "name": "contractBeingSold",
          "type": "address"
        },
        {
          "internalType": "address",
          "name": "sellerAddress",
          "type": "address"
        },
        {
          "internalType": "uint256",
          "name": "sellPrice",
          "type": "uint256"
        },
        {
          "internalType": "address",
          "name": "buyersAddress",
          "type": "address"
        }
      ],
      "stateMutability": "view",
      "type": "function"
    },
    {
      "inputs": [
        {
          "internalType": "address",
          "name": "contractBeingBought",
          "type": "address"
        }
      ],
      "name": "setBuyersInfo",
      "outputs": [],
      "stateMutability": "payable",
      "type": "function"
    },
    {
      "inputs": [
        {
          "internalType": "address",
          "name": "contractBeingSold",
          "type": "address"
        },
        {
          "internalType": "uint256",
          "name": "sellPrice",
          "type": "uint256"
        },
        {
          "internalType": "address",
          "name": "buyerAddress",
          "type": "address"
        }
      ],
      "name": "setSellersInfo",
      "outputs": [],
      "stateMutability": "nonpayable",
      "type": "function"
    },
    {
      "inputs": [
        {
          "internalType": "address",
          "name": "newOwner",
          "type": "address"
        }
      ],
      "name": "transferOwnership",
      "outputs": [],
      "stateMutability": "nonpayable",
      "type": "function"
    },
    {
      "inputs": [],
      "name": "withdraw",
      "outputs": [],
      "stateMutability": "payable",
      "type": "function"
    }
  ],
  "bytecode": "0x608060405234801561001057600080fd5b5061002d61002261007360201b60201c565b61007b60201b60201c565b33600160006101000a81548173ffffffffffffffffffffffffffffffffffffffff021916908373ffffffffffffffffffffffffffffffffffffffff16021790555061013f565b600033905090565b60008060009054906101000a900473ffffffffffffffffffffffffffffffffffffffff169050816000806101000a81548173ffffffffffffffffffffffffffffffffffffffff021916908373ffffffffffffffffffffffffffffffffffffffff1602179055508173ffffffffffffffffffffffffffffffffffffffff168173ffffffffffffffffffffffffffffffffffffffff167f8be0079c531659141344cd1fd0a4f28419497f9722a3daafe3b4186f6b6457e060405160405180910390a35050565b61189d8061014e6000396000f3fe60806040526004361061009c5760003560e01c80636d47ab72116100645780636d47ab7214610146578063715018a61461018657806378b1cf271461019d5780638da5cb5b146101da57806395810b9314610205578063f2fde38b146102215761009c565b806312065fe0146100a15780632f1c376c146100cc5780633ccfd60b146100f5578063468229ae146100ff57806358c55b7e1461012a575b600080fd5b3480156100ad57600080fd5b506100b661024a565b6040516100c391906114ef565b60405180910390f35b3480156100d857600080fd5b506100f360048036038101906100ee9190611086565b6102ce565b005b6100fd61034a565b005b34801561010b57600080fd5b5061011461047b565b604051610121919061134b565b60405180910390f35b610144600480360381019061013f91906110d5565b6104a1565b005b34801561015257600080fd5b5061016d6004803603810190610168919061105d565b61060d565b60405161017d9493929190611366565b60405180910390f35b34801561019257600080fd5b5061019b61069d565b005b3480156101a957600080fd5b506101c460048036038101906101bf919061105d565b610725565b6040516101d191906114ef565b60405180910390f35b3480156101e657600080fd5b506101ef6108ff565b6040516101fc9190611330565b60405180910390f35b61021f600480360381019061021a919061105d565b610928565b005b34801561022d57600080fd5b506102486004803603810190610243919061105d565b610aa0565b005b6000610254610b98565b73ffffffffffffffffffffffffffffffffffffffff166102726108ff565b73ffffffffffffffffffffffffffffffffffffffff16146102c8576040517f08c379a00000000000000000000000000000000000000000000000000000000081526004016102bf9061142b565b60405180910390fd5b47905090565b6000339050600060405180608001604052808673ffffffffffffffffffffffffffffffffffffffff1681526020018373ffffffffffffffffffffffffffffffffffffffff1681526020018581526020018473ffffffffffffffffffffffffffffffffffffffff16815250905061034381610ba0565b5050505050565b610352610b98565b73ffffffffffffffffffffffffffffffffffffffff166103706108ff565b73ffffffffffffffffffffffffffffffffffffffff16146103c6576040517f08c379a00000000000000000000000000000000000000000000000000000000081526004016103bd9061142b565b60405180910390fd5b600047905060003373ffffffffffffffffffffffffffffffffffffffff16826040516103f19061131b565b60006040518083038185875af1925050503d806000811461042e576040519150601f19603f3d011682016040523d82523d6000602084013e610433565b606091505b5050905080610477576040517f08c379a000000000000000000000000000000000000000000000000000000000815260040161046e9061140b565b60405180910390fd5b5050565b600160009054906101000a900473ffffffffffffffffffffffffffffffffffffffff1681565b600060026000836000015173ffffffffffffffffffffffffffffffffffffffff1673ffffffffffffffffffffffffffffffffffffffff1681526020019081526020016000206040518060800160405290816000820160009054906101000a900473ffffffffffffffffffffffffffffffffffffffff1673ffffffffffffffffffffffffffffffffffffffff1673ffffffffffffffffffffffffffffffffffffffff1681526020016001820160009054906101000a900473ffffffffffffffffffffffffffffffffffffffff1673ffffffffffffffffffffffffffffffffffffffff1673ffffffffffffffffffffffffffffffffffffffff168152602001600282015481526020016003820160009054906101000a900473ffffffffffffffffffffffffffffffffffffffff1673ffffffffffffffffffffffffffffffffffffffff1673ffffffffffffffffffffffffffffffffffffffff168152505090506106098183610d00565b5050565b60026020528060005260406000206000915090508060000160009054906101000a900473ffffffffffffffffffffffffffffffffffffffff16908060010160009054906101000a900473ffffffffffffffffffffffffffffffffffffffff16908060020154908060030160009054906101000a900473ffffffffffffffffffffffffffffffffffffffff16905084565b6106a5610b98565b73ffffffffffffffffffffffffffffffffffffffff166106c36108ff565b73ffffffffffffffffffffffffffffffffffffffff1614610719576040517f08c379a00000000000000000000000000000000000000000000000000000000081526004016107109061142b565b60405180910390fd5b6107236000610f0f565b565b600080600260008473ffffffffffffffffffffffffffffffffffffffff1673ffffffffffffffffffffffffffffffffffffffff1681526020019081526020016000206040518060800160405290816000820160009054906101000a900473ffffffffffffffffffffffffffffffffffffffff1673ffffffffffffffffffffffffffffffffffffffff1673ffffffffffffffffffffffffffffffffffffffff1681526020016001820160009054906101000a900473ffffffffffffffffffffffffffffffffffffffff1673ffffffffffffffffffffffffffffffffffffffff1673ffffffffffffffffffffffffffffffffffffffff168152602001600282015481526020016003820160009054906101000a900473ffffffffffffffffffffffffffffffffffffffff1673ffffffffffffffffffffffffffffffffffffffff1673ffffffffffffffffffffffffffffffffffffffff168152505090503373ffffffffffffffffffffffffffffffffffffffff16816060015173ffffffffffffffffffffffffffffffffffffffff16146108f2576040517f08c379a00000000000000000000000000000000000000000000000000000000081526004016108e99061146b565b60405180910390fd5b8060400151915050919050565b60008060009054906101000a900473ffffffffffffffffffffffffffffffffffffffff16905090565b600034905060003390506000821415610976576040517f08c379a000000000000000000000000000000000000000000000000000000000815260040161096d9061144b565b60405180910390fd5b600060405180606001604052808573ffffffffffffffffffffffffffffffffffffffff1681526020018373ffffffffffffffffffffffffffffffffffffffff1681526020018481525090503373ffffffffffffffffffffffffffffffffffffffff16600260008673ffffffffffffffffffffffffffffffffffffffff1673ffffffffffffffffffffffffffffffffffffffff16815260200190815260200160002060030160009054906101000a900473ffffffffffffffffffffffffffffffffffffffff1673ffffffffffffffffffffffffffffffffffffffff1614610a91576040517f08c379a0000000000000000000000000000000000000000000000000000000008152600401610a889061148b565b60405180910390fd5b610a9a816104a1565b50505050565b610aa8610b98565b73ffffffffffffffffffffffffffffffffffffffff16610ac66108ff565b73ffffffffffffffffffffffffffffffffffffffff1614610b1c576040517f08c379a0000000000000000000000000000000000000000000000000000000008152600401610b139061142b565b60405180910390fd5b600073ffffffffffffffffffffffffffffffffffffffff168173ffffffffffffffffffffffffffffffffffffffff161415610b8c576040517f08c379a0000000000000000000000000000000000000000000000000000000008152600401610b83906113ab565b60405180910390fd5b610b9581610f0f565b50565b600033905090565b8060026000836000015173ffffffffffffffffffffffffffffffffffffffff1673ffffffffffffffffffffffffffffffffffffffff16815260200190815260200160002060008201518160000160006101000a81548173ffffffffffffffffffffffffffffffffffffffff021916908373ffffffffffffffffffffffffffffffffffffffff16021790555060208201518160010160006101000a81548173ffffffffffffffffffffffffffffffffffffffff021916908373ffffffffffffffffffffffffffffffffffffffff1602179055506040820151816002015560608201518160030160006101000a81548173ffffffffffffffffffffffffffffffffffffffff021916908373ffffffffffffffffffffffffffffffffffffffff1602179055509050507f7d23599541cf4a0e5876bbd3ad9cf554c5ea9b04fe00624271cc99e7dfc27a1c81604051610cf591906114d4565b60405180910390a150565b8060400151826040015114610d4a576040517f08c379a0000000000000000000000000000000000000000000000000000000008152600401610d41906113eb565b60405180910390fd5b806000015173ffffffffffffffffffffffffffffffffffffffff16826000015173ffffffffffffffffffffffffffffffffffffffff1614610dc0576040517f08c379a0000000000000000000000000000000000000000000000000000000008152600401610db7906113cb565b60405180910390fd5b816020015173ffffffffffffffffffffffffffffffffffffffff166108fc82604001519081150290604051600060405180830381858888f19350505050158015610e0e573d6000803e3d6000fd5b507f05d2c34b032f3aa7b67bd9467b3e53f718af5ef3c7f41a372b0d88c3caa240b08183604051610e409291906114ab565b60405180910390a160026000836000015173ffffffffffffffffffffffffffffffffffffffff1673ffffffffffffffffffffffffffffffffffffffff168152602001908152602001600020600080820160006101000a81549073ffffffffffffffffffffffffffffffffffffffff02191690556001820160006101000a81549073ffffffffffffffffffffffffffffffffffffffff021916905560028201600090556003820160006101000a81549073ffffffffffffffffffffffffffffffffffffffff021916905550505050565b60008060009054906101000a900473ffffffffffffffffffffffffffffffffffffffff169050816000806101000a81548173ffffffffffffffffffffffffffffffffffffffff021916908373ffffffffffffffffffffffffffffffffffffffff1602179055508173ffffffffffffffffffffffffffffffffffffffff168173ffffffffffffffffffffffffffffffffffffffff167f8be0079c531659141344cd1fd0a4f28419497f9722a3daafe3b4186f6b6457e060405160405180910390a35050565b600081359050610fe281611839565b92915050565b600060608284031215610ffa57600080fd5b611004606061150a565b9050600061101484828501610fd3565b600083015250602061102884828501610fd3565b602083015250604061103c84828501611048565b60408301525092915050565b60008135905061105781611850565b92915050565b60006020828403121561106f57600080fd5b600061107d84828501610fd3565b91505092915050565b60008060006060848603121561109b57600080fd5b60006110a986828701610fd3565b93505060206110ba86828701611048565b92505060406110cb86828701610fd3565b9150509250925092565b6000606082840312156110e757600080fd5b60006110f584828501610fe8565b91505092915050565b6111078161155d565b82525050565b6111168161154b565b82525050565b6111258161154b565b82525050565b600061113860148361152f565b91506111438261160a565b601482019050919050565b600061115b60268361153a565b915061116682611633565b604082019050919050565b600061117e60258361153a565b915061118982611682565b604082019050919050565b60006111a160228361153a565b91506111ac826116d1565b604082019050919050565b60006111c460278361153a565b91506111cf82611720565b604082019050919050565b60006111e760208361153a565b91506111f28261176f565b602082019050919050565b600061120a601d8361153a565b915061121582611798565b602082019050919050565b600061122d60198361153a565b9150611238826117c1565b602082019050919050565b600061125060228361153a565b915061125b826117ea565b604082019050919050565b60608201600082015161127c600085018261110d565b50602082015161128f602085018261110d565b5060408201516112a260408501826112fd565b50505050565b6080820160008201516112be600085018261110d565b5060208201516112d1602085018261110d565b5060408201516112e460408501826112fd565b5060608201516112f7606085018261110d565b50505050565b6113068161158f565b82525050565b6113158161158f565b82525050565b60006113268261112b565b9150819050919050565b6000602082019050611345600083018461111c565b92915050565b600060208201905061136060008301846110fe565b92915050565b600060808201905061137b600083018761111c565b611388602083018661111c565b611395604083018561130c565b6113a2606083018461111c565b95945050505050565b600060208201905081810360008301526113c48161114e565b9050919050565b600060208201905081810360008301526113e481611171565b9050919050565b6000602082019050818103600083015261140481611194565b9050919050565b60006020820190508181036000830152611424816111b7565b9050919050565b60006020820190508181036000830152611444816111da565b9050919050565b60006020820190508181036000830152611464816111fd565b9050919050565b6000602082019050818103600083015261148481611220565b9050919050565b600060208201905081810360008301526114a481611243565b9050919050565b600060e0820190506114c06000830185611266565b6114cd60608301846112a8565b9392505050565b60006080820190506114e960008301846112a8565b92915050565b6000602082019050611504600083018461130c565b92915050565b6000611514611525565b90506115208282611599565b919050565b6000604051905090565b600081905092915050565b600082825260208201905092915050565b60006115568261156f565b9050919050565b60006115688261156f565b9050919050565b600073ffffffffffffffffffffffffffffffffffffffff82169050919050565b6000819050919050565b6115a2826115f9565b810181811067ffffffffffffffff821117156115c1576115c06115ca565b5b80604052505050565b7f4e487b7100000000000000000000000000000000000000000000000000000000600052604160045260246000fd5b6000601f19601f8301169050919050565b7f7472616e7366657265642066696e616e63696572000000000000000000000000600082015250565b7f4f776e61626c653a206e6577206f776e657220697320746865207a65726f206160008201527f6464726573730000000000000000000000000000000000000000000000000000602082015250565b7f436f6e747261637420736f6c6420616e6420626f75676874206e6f742074686560008201527f2073616d65000000000000000000000000000000000000000000000000000000602082015250565b7f53656c6c20707269636520646f65736e2774206d61746368206275792070726960008201527f6365000000000000000000000000000000000000000000000000000000000000602082015250565b7f4661696c656420746f207769746864726177206d6f6e65792066726f6d20636f60008201527f6e74726163742e00000000000000000000000000000000000000000000000000602082015250565b7f4f776e61626c653a2063616c6c6572206973206e6f7420746865206f776e6572600082015250565b7f427579657220646964206e6f742073656e6420616e7920616d6f756e74000000600082015250565b7f4f6e6c792062757965722063616e2073656520616d6f756e7400000000000000600082015250565b7f53656c6c6572206164647265737320646964206e6f74206d617463682062757960008201527f6572000000000000000000000000000000000000000000000000000000000000602082015250565b6118428161154b565b811461184d57600080fd5b50565b6118598161158f565b811461186457600080fd5b5056fea2646970667358221220147a5a417732f2af9ae8b5bf5e9795439677d1ee3be5b0c20c7ab5391ebe65e364736f6c63430008010033",
  "linkReferences": {},
  "deployedLinkReferences": {}
}