{
  "_format": "hh-sol-artifact-1",
  "contractName": "TestERC20",
  "sourceName": "contracts/TestERC20.sol",
  "abi": [
    {
      "inputs": [
        {
          "internalType": "uint256",
          "name": "_supply",
          "type": "uint256"
        }
      ],
      "stateMutability": "nonpayable",
      "type": "constructor"
    },
    {
      "anonymous": false,
      "inputs": [
        {
          "indexed": true,
          "internalType": "address",
          "name": "owner",
          "type": "address"
        },
        {
          "indexed": true,
          "internalType": "address",
          "name": "spender",
          "type": "address"
        },
        {
          "indexed": false,
          "internalType": "uint256",
          "name": "value",
          "type": "uint256"
        }
      ],
      "name": "Approval",
      "type": "event"
    },
    {
      "anonymous": false,
      "inputs": [
        {
          "indexed": true,
          "internalType": "address",
          "name": "from",
          "type": "address"
        },
        {
          "indexed": true,
          "internalType": "address",
          "name": "to",
          "type": "address"
        },
        {
          "indexed": false,
          "internalType": "uint256",
          "name": "value",
          "type": "uint256"
        }
      ],
      "name": "Transfer",
      "type": "event"
    },
    {
      "inputs": [
        {
          "internalType": "address",
          "name": "owner",
          "type": "address"
        },
        {
          "internalType": "address",
          "name": "spender",
          "type": "address"
        }
      ],
      "name": "allowance",
      "outputs": [
        {
          "internalType": "uint256",
          "name": "",
          "type": "uint256"
        }
      ],
      "stateMutability": "view",
      "type": "function"
    },
    {
      "inputs": [
        {
          "internalType": "address",
          "name": "spender",
          "type": "address"
        },
        {
          "internalType": "uint256",
          "name": "amount",
          "type": "uint256"
        }
      ],
      "name": "approve",
      "outputs": [
        {
          "internalType": "bool",
          "name": "",
          "type": "bool"
        }
      ],
      "stateMutability": "nonpayable",
      "type": "function"
    },
    {
      "inputs": [
        {
          "internalType": "address",
          "name": "account",
          "type": "address"
        }
      ],
      "name": "balanceOf",
      "outputs": [
        {
          "internalType": "uint256",
          "name": "",
          "type": "uint256"
        }
      ],
      "stateMutability": "view",
      "type": "function"
    },
    {
      "inputs": [],
      "name": "decimals",
      "outputs": [
        {
          "internalType": "uint8",
          "name": "",
          "type": "uint8"
        }
      ],
      "stateMutability": "view",
      "type": "function"
    },
    {
      "inputs": [
        {
          "internalType": "address",
          "name": "spender",
          "type": "address"
        },
        {
          "internalType": "uint256",
          "name": "subtractedValue",
          "type": "uint256"
        }
      ],
      "name": "decreaseAllowance",
      "outputs": [
        {
          "internalType": "bool",
          "name": "",
          "type": "bool"
        }
      ],
      "stateMutability": "nonpayable",
      "type": "function"
    },
    {
      "inputs": [
        {
          "internalType": "address",
          "name": "spender",
          "type": "address"
        },
        {
          "internalType": "uint256",
          "name": "addedValue",
          "type": "uint256"
        }
      ],
      "name": "increaseAllowance",
      "outputs": [
        {
          "internalType": "bool",
          "name": "",
          "type": "bool"
        }
      ],
      "stateMutability": "nonpayable",
      "type": "function"
    },
    {
      "inputs": [],
      "name": "name",
      "outputs": [
        {
          "internalType": "string",
          "name": "",
          "type": "string"
        }
      ],
      "stateMutability": "view",
      "type": "function"
    },
    {
      "inputs": [],
      "name": "owner",
      "outputs": [
        {
          "internalType": "address",
          "name": "",
          "type": "address"
        }
      ],
      "stateMutability": "view",
      "type": "function"
    },
    {
      "inputs": [],
      "name": "symbol",
      "outputs": [
        {
          "internalType": "string",
          "name": "",
          "type": "string"
        }
      ],
      "stateMutability": "view",
      "type": "function"
    },
    {
      "inputs": [],
      "name": "totalSupply",
      "outputs": [
        {
          "internalType": "uint256",
          "name": "",
          "type": "uint256"
        }
      ],
      "stateMutability": "view",
      "type": "function"
    },
    {
      "inputs": [
        {
          "internalType": "address",
          "name": "to",
          "type": "address"
        },
        {
          "internalType": "uint256",
          "name": "amount",
          "type": "uint256"
        }
      ],
      "name": "transfer",
      "outputs": [
        {
          "internalType": "bool",
          "name": "",
          "type": "bool"
        }
      ],
      "stateMutability": "nonpayable",
      "type": "function"
    },
    {
      "inputs": [
        {
          "internalType": "address",
          "name": "from",
          "type": "address"
        },
        {
          "internalType": "address",
          "name": "to",
          "type": "address"
        },
        {
          "internalType": "uint256",
          "name": "amount",
          "type": "uint256"
        }
      ],
      "name": "transferFrom",
      "outputs": [
        {
          "internalType": "bool",
          "name": "",
          "type": "bool"
        }
      ],
      "stateMutability": "nonpayable",
      "type": "function"
    },
    {
      "inputs": [
        {
          "internalType": "address",
          "name": "newOwner",
          "type": "address"
        }
      ],
      "name": "transferOwnership",
      "outputs": [],
      "stateMutability": "nonpayable",
      "type": "function"
    }
  ],
  "bytecode": "0x60806040523480156200001157600080fd5b5060405162001b0e38038062001b0e8339818101604052810190620000379190620003ae565b6040518060400160405280600981526020017f46616b65455243323000000000000000000000000000000000000000000000008152506040518060400160405280600781526020017f464b4552433230000000000000000000000000000000000000000000000000008152508160039080519060200190620000bb929190620002e7565b508060049080519060200190620000d4929190620002e7565b5050506200011333620000ec6200015b60201b60201c565b600a620000fa91906200051a565b8362000107919062000657565b6200016460201b60201c565b33600560006101000a81548173ffffffffffffffffffffffffffffffffffffffff021916908373ffffffffffffffffffffffffffffffffffffffff16021790555050620007b3565b60006012905090565b600073ffffffffffffffffffffffffffffffffffffffff168273ffffffffffffffffffffffffffffffffffffffff161415620001d7576040517f08c379a0000000000000000000000000000000000000000000000000000000008152600401620001ce9062000412565b60405180910390fd5b620001eb60008383620002dd60201b60201c565b8060026000828254620001ff919062000462565b92505081905550806000808473ffffffffffffffffffffffffffffffffffffffff1673ffffffffffffffffffffffffffffffffffffffff168152602001908152602001600020600082825462000256919062000462565b925050819055508173ffffffffffffffffffffffffffffffffffffffff16600073ffffffffffffffffffffffffffffffffffffffff167fddf252ad1be2c89b69c2b068fc378daa952ba7f163c4a11628f55a4df523b3ef83604051620002bd919062000434565b60405180910390a3620002d960008383620002e260201b60201c565b5050565b505050565b505050565b828054620002f590620006cf565b90600052602060002090601f01602090048101928262000319576000855562000365565b82601f106200033457805160ff191683800117855562000365565b8280016001018555821562000365579182015b828111156200036457825182559160200191906001019062000347565b5b50905062000374919062000378565b5090565b5b808211156200039357600081600090555060010162000379565b5090565b600081519050620003a88162000799565b92915050565b600060208284031215620003c157600080fd5b6000620003d18482850162000397565b91505092915050565b6000620003e9601f8362000451565b9150620003f68262000770565b602082019050919050565b6200040c81620006b8565b82525050565b600060208201905081810360008301526200042d81620003da565b9050919050565b60006020820190506200044b600083018462000401565b92915050565b600082825260208201905092915050565b60006200046f82620006b8565b91506200047c83620006b8565b9250827fffffffffffffffffffffffffffffffffffffffffffffffffffffffffffffffff03821115620004b457620004b362000705565b5b828201905092915050565b6000808291508390505b60018511156200051157808604811115620004e957620004e862000705565b5b6001851615620004f95780820291505b8081029050620005098562000763565b9450620004c9565b94509492505050565b60006200052782620006b8565b91506200053483620006c2565b9250620005637fffffffffffffffffffffffffffffffffffffffffffffffffffffffffffffffff84846200056b565b905092915050565b6000826200057d576001905062000650565b816200058d576000905062000650565b8160018114620005a65760028114620005b157620005e7565b600191505062000650565b60ff841115620005c657620005c562000705565b5b8360020a915084821115620005e057620005df62000705565b5b5062000650565b5060208310610133831016604e8410600b8410161715620006215782820a9050838111156200061b576200061a62000705565b5b62000650565b620006308484846001620004bf565b925090508184048111156200064a576200064962000705565b5b81810290505b9392505050565b60006200066482620006b8565b91506200067183620006b8565b9250817fffffffffffffffffffffffffffffffffffffffffffffffffffffffffffffffff0483118215151615620006ad57620006ac62000705565b5b828202905092915050565b6000819050919050565b600060ff82169050919050565b60006002820490506001821680620006e857607f821691505b60208210811415620006ff57620006fe62000734565b5b50919050565b7f4e487b7100000000000000000000000000000000000000000000000000000000600052601160045260246000fd5b7f4e487b7100000000000000000000000000000000000000000000000000000000600052602260045260246000fd5b60008160011c9050919050565b7f45524332303a206d696e7420746f20746865207a65726f206164647265737300600082015250565b620007a481620006b8565b8114620007b057600080fd5b50565b61134b80620007c36000396000f3fe608060405234801561001057600080fd5b50600436106100cf5760003560e01c806370a082311161008c578063a457c2d711610066578063a457c2d71461022a578063a9059cbb1461025a578063dd62ed3e1461028a578063f2fde38b146102ba576100cf565b806370a08231146101be5780638da5cb5b146101ee57806395d89b411461020c576100cf565b806306fdde03146100d4578063095ea7b3146100f257806318160ddd1461012257806323b872dd14610140578063313ce56714610170578063395093511461018e575b600080fd5b6100dc6102d6565b6040516100e99190610e11565b60405180910390f35b61010c60048036038101906101079190610c35565b610368565b6040516101199190610df6565b60405180910390f35b61012a61038b565b6040516101379190610f13565b60405180910390f35b61015a60048036038101906101559190610be6565b610395565b6040516101679190610df6565b60405180910390f35b6101786103c4565b6040516101859190610f2e565b60405180910390f35b6101a860048036038101906101a39190610c35565b6103cd565b6040516101b59190610df6565b60405180910390f35b6101d860048036038101906101d39190610b81565b610404565b6040516101e59190610f13565b60405180910390f35b6101f661044c565b6040516102039190610ddb565b60405180910390f35b610214610476565b6040516102219190610e11565b60405180910390f35b610244600480360381019061023f9190610c35565b610508565b6040516102519190610df6565b60405180910390f35b610274600480360381019061026f9190610c35565b61057f565b6040516102819190610df6565b60405180910390f35b6102a4600480360381019061029f9190610baa565b6105a2565b6040516102b19190610f13565b60405180910390f35b6102d460048036038101906102cf9190610b81565b610629565b005b6060600380546102e590611043565b80601f016020809104026020016040519081016040528092919081815260200182805461031190611043565b801561035e5780601f106103335761010080835404028352916020019161035e565b820191906000526020600020905b81548152906001019060200180831161034157829003601f168201915b5050505050905090565b60008061037361066d565b9050610380818585610675565b600191505092915050565b6000600254905090565b6000806103a061066d565b90506103ad858285610840565b6103b88585856108cc565b60019150509392505050565b60006012905090565b6000806103d861066d565b90506103f98185856103ea85896105a2565b6103f49190610f65565b610675565b600191505092915050565b60008060008373ffffffffffffffffffffffffffffffffffffffff1673ffffffffffffffffffffffffffffffffffffffff168152602001908152602001600020549050919050565b6000600560009054906101000a900473ffffffffffffffffffffffffffffffffffffffff16905090565b60606004805461048590611043565b80601f01602080910402602001604051908101604052809291908181526020018280546104b190611043565b80156104fe5780601f106104d3576101008083540402835291602001916104fe565b820191906000526020600020905b8154815290600101906020018083116104e157829003601f168201915b5050505050905090565b60008061051361066d565b9050600061052182866105a2565b905083811015610566576040517f08c379a000000000000000000000000000000000000000000000000000000000815260040161055d90610ef3565b60405180910390fd5b6105738286868403610675565b60019250505092915050565b60008061058a61066d565b90506105978185856108cc565b600191505092915050565b6000600160008473ffffffffffffffffffffffffffffffffffffffff1673ffffffffffffffffffffffffffffffffffffffff16815260200190815260200160002060008373ffffffffffffffffffffffffffffffffffffffff1673ffffffffffffffffffffffffffffffffffffffff16815260200190815260200160002054905092915050565b80600560006101000a81548173ffffffffffffffffffffffffffffffffffffffff021916908373ffffffffffffffffffffffffffffffffffffffff16021790555050565b600033905090565b600073ffffffffffffffffffffffffffffffffffffffff168373ffffffffffffffffffffffffffffffffffffffff1614156106e5576040517f08c379a00000000000000000000000000000000000000000000000000000000081526004016106dc90610ed3565b60405180910390fd5b600073ffffffffffffffffffffffffffffffffffffffff168273ffffffffffffffffffffffffffffffffffffffff161415610755576040517f08c379a000000000000000000000000000000000000000000000000000000000815260040161074c90610e53565b60405180910390fd5b80600160008573ffffffffffffffffffffffffffffffffffffffff1673ffffffffffffffffffffffffffffffffffffffff16815260200190815260200160002060008473ffffffffffffffffffffffffffffffffffffffff1673ffffffffffffffffffffffffffffffffffffffff168152602001908152602001600020819055508173ffffffffffffffffffffffffffffffffffffffff168373ffffffffffffffffffffffffffffffffffffffff167f8c5be1e5ebec7d5bd14f71427d1e84f3dd0314c0f7b2291e5b200ac8c7c3b925836040516108339190610f13565b60405180910390a3505050565b600061084c84846105a2565b90507fffffffffffffffffffffffffffffffffffffffffffffffffffffffffffffffff81146108c657818110156108b8576040517f08c379a00000000000000000000000000000000000000000000000000000000081526004016108af90610e73565b60405180910390fd5b6108c58484848403610675565b5b50505050565b600073ffffffffffffffffffffffffffffffffffffffff168373ffffffffffffffffffffffffffffffffffffffff16141561093c576040517f08c379a000000000000000000000000000000000000000000000000000000000815260040161093390610eb3565b60405180910390fd5b600073ffffffffffffffffffffffffffffffffffffffff168273ffffffffffffffffffffffffffffffffffffffff1614156109ac576040517f08c379a00000000000000000000000000000000000000000000000000000000081526004016109a390610e33565b60405180910390fd5b6109b7838383610b4d565b60008060008573ffffffffffffffffffffffffffffffffffffffff1673ffffffffffffffffffffffffffffffffffffffff16815260200190815260200160002054905081811015610a3d576040517f08c379a0000000000000000000000000000000000000000000000000000000008152600401610a3490610e93565b60405180910390fd5b8181036000808673ffffffffffffffffffffffffffffffffffffffff1673ffffffffffffffffffffffffffffffffffffffff16815260200190815260200160002081905550816000808573ffffffffffffffffffffffffffffffffffffffff1673ffffffffffffffffffffffffffffffffffffffff1681526020019081526020016000206000828254610ad09190610f65565b925050819055508273ffffffffffffffffffffffffffffffffffffffff168473ffffffffffffffffffffffffffffffffffffffff167fddf252ad1be2c89b69c2b068fc378daa952ba7f163c4a11628f55a4df523b3ef84604051610b349190610f13565b60405180910390a3610b47848484610b52565b50505050565b505050565b505050565b600081359050610b66816112e7565b92915050565b600081359050610b7b816112fe565b92915050565b600060208284031215610b9357600080fd5b6000610ba184828501610b57565b91505092915050565b60008060408385031215610bbd57600080fd5b6000610bcb85828601610b57565b9250506020610bdc85828601610b57565b9150509250929050565b600080600060608486031215610bfb57600080fd5b6000610c0986828701610b57565b9350506020610c1a86828701610b57565b9250506040610c2b86828701610b6c565b9150509250925092565b60008060408385031215610c4857600080fd5b6000610c5685828601610b57565b9250506020610c6785828601610b6c565b9150509250929050565b610c7a81610fbb565b82525050565b610c8981610fcd565b82525050565b6000610c9a82610f49565b610ca48185610f54565b9350610cb4818560208601611010565b610cbd816110d3565b840191505092915050565b6000610cd5602383610f54565b9150610ce0826110e4565b604082019050919050565b6000610cf8602283610f54565b9150610d0382611133565b604082019050919050565b6000610d1b601d83610f54565b9150610d2682611182565b602082019050919050565b6000610d3e602683610f54565b9150610d49826111ab565b604082019050919050565b6000610d61602583610f54565b9150610d6c826111fa565b604082019050919050565b6000610d84602483610f54565b9150610d8f82611249565b604082019050919050565b6000610da7602583610f54565b9150610db282611298565b604082019050919050565b610dc681610ff9565b82525050565b610dd581611003565b82525050565b6000602082019050610df06000830184610c71565b92915050565b6000602082019050610e0b6000830184610c80565b92915050565b60006020820190508181036000830152610e2b8184610c8f565b905092915050565b60006020820190508181036000830152610e4c81610cc8565b9050919050565b60006020820190508181036000830152610e6c81610ceb565b9050919050565b60006020820190508181036000830152610e8c81610d0e565b9050919050565b60006020820190508181036000830152610eac81610d31565b9050919050565b60006020820190508181036000830152610ecc81610d54565b9050919050565b60006020820190508181036000830152610eec81610d77565b9050919050565b60006020820190508181036000830152610f0c81610d9a565b9050919050565b6000602082019050610f286000830184610dbd565b92915050565b6000602082019050610f436000830184610dcc565b92915050565b600081519050919050565b600082825260208201905092915050565b6000610f7082610ff9565b9150610f7b83610ff9565b9250827fffffffffffffffffffffffffffffffffffffffffffffffffffffffffffffffff03821115610fb057610faf611075565b5b828201905092915050565b6000610fc682610fd9565b9050919050565b60008115159050919050565b600073ffffffffffffffffffffffffffffffffffffffff82169050919050565b6000819050919050565b600060ff82169050919050565b60005b8381101561102e578082015181840152602081019050611013565b8381111561103d576000848401525b50505050565b6000600282049050600182168061105b57607f821691505b6020821081141561106f5761106e6110a4565b5b50919050565b7f4e487b7100000000000000000000000000000000000000000000000000000000600052601160045260246000fd5b7f4e487b7100000000000000000000000000000000000000000000000000000000600052602260045260246000fd5b6000601f19601f8301169050919050565b7f45524332303a207472616e7366657220746f20746865207a65726f206164647260008201527f6573730000000000000000000000000000000000000000000000000000000000602082015250565b7f45524332303a20617070726f766520746f20746865207a65726f20616464726560008201527f7373000000000000000000000000000000000000000000000000000000000000602082015250565b7f45524332303a20696e73756666696369656e7420616c6c6f77616e6365000000600082015250565b7f45524332303a207472616e7366657220616d6f756e742065786365656473206260008201527f616c616e63650000000000000000000000000000000000000000000000000000602082015250565b7f45524332303a207472616e736665722066726f6d20746865207a65726f20616460008201527f6472657373000000000000000000000000000000000000000000000000000000602082015250565b7f45524332303a20617070726f76652066726f6d20746865207a65726f2061646460008201527f7265737300000000000000000000000000000000000000000000000000000000602082015250565b7f45524332303a2064656372656173656420616c6c6f77616e63652062656c6f7760008201527f207a65726f000000000000000000000000000000000000000000000000000000602082015250565b6112f081610fbb565b81146112fb57600080fd5b50565b61130781610ff9565b811461131257600080fd5b5056fea264697066735822122079a4ef6bf9d6d686ed1236b78a305d567b70271a9c8a654a841cec059375ad6a64736f6c63430008010033",
  "linkReferences": {},
  "deployedLinkReferences": {}
}